{
  "_format": "hh-sol-artifact-1",
  "contractName": "DatHieuBin",
  "sourceName": "contracts/DHB.sol",
  "abi": [
    {
      "inputs": [
        {
          "internalType": "address",
          "name": "initialOwner",
          "type": "address"
        }
      ],
      "stateMutability": "nonpayable",
      "type": "constructor"
    },
    {
      "inputs": [],
      "name": "ERC721EnumerableForbiddenBatchMint",
      "type": "error"
    },
    {
      "inputs": [
        {
          "internalType": "address",
          "name": "sender",
          "type": "address"
        },
        {
          "internalType": "uint256",
          "name": "tokenId",
          "type": "uint256"
        },
        {
          "internalType": "address",
          "name": "owner",
          "type": "address"
        }
      ],
      "name": "ERC721IncorrectOwner",
      "type": "error"
    },
    {
      "inputs": [
        {
          "internalType": "address",
          "name": "operator",
          "type": "address"
        },
        {
          "internalType": "uint256",
          "name": "tokenId",
          "type": "uint256"
        }
      ],
      "name": "ERC721InsufficientApproval",
      "type": "error"
    },
    {
      "inputs": [
        {
          "internalType": "address",
          "name": "approver",
          "type": "address"
        }
      ],
      "name": "ERC721InvalidApprover",
      "type": "error"
    },
    {
      "inputs": [
        {
          "internalType": "address",
          "name": "operator",
          "type": "address"
        }
      ],
      "name": "ERC721InvalidOperator",
      "type": "error"
    },
    {
      "inputs": [
        {
          "internalType": "address",
          "name": "owner",
          "type": "address"
        }
      ],
      "name": "ERC721InvalidOwner",
      "type": "error"
    },
    {
      "inputs": [
        {
          "internalType": "address",
          "name": "receiver",
          "type": "address"
        }
      ],
      "name": "ERC721InvalidReceiver",
      "type": "error"
    },
    {
      "inputs": [
        {
          "internalType": "address",
          "name": "sender",
          "type": "address"
        }
      ],
      "name": "ERC721InvalidSender",
      "type": "error"
    },
    {
      "inputs": [
        {
          "internalType": "uint256",
          "name": "tokenId",
          "type": "uint256"
        }
      ],
      "name": "ERC721NonexistentToken",
      "type": "error"
    },
    {
      "inputs": [
        {
          "internalType": "address",
          "name": "owner",
          "type": "address"
        },
        {
          "internalType": "uint256",
          "name": "index",
          "type": "uint256"
        }
      ],
      "name": "ERC721OutOfBoundsIndex",
      "type": "error"
    },
    {
      "inputs": [],
      "name": "EnforcedPause",
      "type": "error"
    },
    {
      "inputs": [],
      "name": "ExpectedPause",
      "type": "error"
    },
    {
      "inputs": [
        {
          "internalType": "address",
          "name": "owner",
          "type": "address"
        }
      ],
      "name": "OwnableInvalidOwner",
      "type": "error"
    },
    {
      "inputs": [
        {
          "internalType": "address",
          "name": "account",
          "type": "address"
        }
      ],
      "name": "OwnableUnauthorizedAccount",
      "type": "error"
    },
    {
      "anonymous": false,
      "inputs": [
        {
          "indexed": true,
          "internalType": "address",
          "name": "owner",
          "type": "address"
        },
        {
          "indexed": true,
          "internalType": "address",
          "name": "approved",
          "type": "address"
        },
        {
          "indexed": true,
          "internalType": "uint256",
          "name": "tokenId",
          "type": "uint256"
        }
      ],
      "name": "Approval",
      "type": "event"
    },
    {
      "anonymous": false,
      "inputs": [
        {
          "indexed": true,
          "internalType": "address",
          "name": "owner",
          "type": "address"
        },
        {
          "indexed": true,
          "internalType": "address",
          "name": "operator",
          "type": "address"
        },
        {
          "indexed": false,
          "internalType": "bool",
          "name": "approved",
          "type": "bool"
        }
      ],
      "name": "ApprovalForAll",
      "type": "event"
    },
    {
      "anonymous": false,
      "inputs": [
        {
          "indexed": true,
          "internalType": "address",
          "name": "previousOwner",
          "type": "address"
        },
        {
          "indexed": true,
          "internalType": "address",
          "name": "newOwner",
          "type": "address"
        }
      ],
      "name": "OwnershipTransferred",
      "type": "event"
    },
    {
      "anonymous": false,
      "inputs": [
        {
          "indexed": false,
          "internalType": "address",
          "name": "account",
          "type": "address"
        }
      ],
      "name": "Paused",
      "type": "event"
    },
    {
      "anonymous": false,
      "inputs": [
        {
          "indexed": true,
          "internalType": "address",
          "name": "from",
          "type": "address"
        },
        {
          "indexed": true,
          "internalType": "address",
          "name": "to",
          "type": "address"
        },
        {
          "indexed": true,
          "internalType": "uint256",
          "name": "tokenId",
          "type": "uint256"
        }
      ],
      "name": "Transfer",
      "type": "event"
    },
    {
      "anonymous": false,
      "inputs": [
        {
          "indexed": false,
          "internalType": "address",
          "name": "account",
          "type": "address"
        }
      ],
      "name": "Unpaused",
      "type": "event"
    },
    {
      "inputs": [
        {
          "internalType": "address",
          "name": "",
          "type": "address"
        }
      ],
      "name": "allowList",
      "outputs": [
        {
          "internalType": "bool",
          "name": "",
          "type": "bool"
        }
      ],
      "stateMutability": "view",
      "type": "function"
    },
    {
      "inputs": [],
      "name": "allowistMint",
      "outputs": [],
      "stateMutability": "payable",
      "type": "function"
    },
    {
      "inputs": [],
      "name": "allowistMintOpen",
      "outputs": [
        {
          "internalType": "bool",
          "name": "",
          "type": "bool"
        }
      ],
      "stateMutability": "view",
      "type": "function"
    },
    {
      "inputs": [
        {
          "internalType": "address",
          "name": "to",
          "type": "address"
        },
        {
          "internalType": "uint256",
          "name": "tokenId",
          "type": "uint256"
        }
      ],
      "name": "approve",
      "outputs": [],
      "stateMutability": "nonpayable",
      "type": "function"
    },
    {
      "inputs": [
        {
          "internalType": "address",
          "name": "owner",
          "type": "address"
        }
      ],
      "name": "balanceOf",
      "outputs": [
        {
          "internalType": "uint256",
          "name": "",
          "type": "uint256"
        }
      ],
      "stateMutability": "view",
      "type": "function"
    },
    {
      "inputs": [
        {
          "internalType": "bool",
          "name": "_publicMintOpen",
          "type": "bool"
        },
        {
          "internalType": "bool",
          "name": "_allowistMintOpen",
          "type": "bool"
        }
      ],
      "name": "editMintWindows",
      "outputs": [],
      "stateMutability": "nonpayable",
      "type": "function"
    },
    {
      "inputs": [
        {
          "internalType": "uint256",
          "name": "tokenId",
          "type": "uint256"
        }
      ],
      "name": "getApproved",
      "outputs": [
        {
          "internalType": "address",
          "name": "",
          "type": "address"
        }
      ],
      "stateMutability": "view",
      "type": "function"
    },
    {
      "inputs": [
        {
          "internalType": "address",
          "name": "owner",
          "type": "address"
        },
        {
          "internalType": "address",
          "name": "operator",
          "type": "address"
        }
      ],
      "name": "isApprovedForAll",
      "outputs": [
        {
          "internalType": "bool",
          "name": "",
          "type": "bool"
        }
      ],
      "stateMutability": "view",
      "type": "function"
    },
    {
      "inputs": [],
      "name": "name",
      "outputs": [
        {
          "internalType": "string",
          "name": "",
          "type": "string"
        }
      ],
      "stateMutability": "view",
      "type": "function"
    },
    {
      "inputs": [],
      "name": "owner",
      "outputs": [
        {
          "internalType": "address",
          "name": "",
          "type": "address"
        }
      ],
      "stateMutability": "view",
      "type": "function"
    },
    {
      "inputs": [
        {
          "internalType": "uint256",
          "name": "tokenId",
          "type": "uint256"
        }
      ],
      "name": "ownerOf",
      "outputs": [
        {
          "internalType": "address",
          "name": "",
          "type": "address"
        }
      ],
      "stateMutability": "view",
      "type": "function"
    },
    {
      "inputs": [],
      "name": "pause",
      "outputs": [],
      "stateMutability": "nonpayable",
      "type": "function"
    },
    {
      "inputs": [],
      "name": "paused",
      "outputs": [
        {
          "internalType": "bool",
          "name": "",
          "type": "bool"
        }
      ],
      "stateMutability": "view",
      "type": "function"
    },
    {
      "inputs": [],
      "name": "publicMint",
      "outputs": [],
      "stateMutability": "payable",
      "type": "function"
    },
    {
      "inputs": [],
      "name": "publicMintOpen",
      "outputs": [
        {
          "internalType": "bool",
          "name": "",
          "type": "bool"
        }
      ],
      "stateMutability": "view",
      "type": "function"
    },
    {
      "inputs": [],
      "name": "renounceOwnership",
      "outputs": [],
      "stateMutability": "nonpayable",
      "type": "function"
    },
    {
      "inputs": [
        {
          "internalType": "address",
          "name": "from",
          "type": "address"
        },
        {
          "internalType": "address",
          "name": "to",
          "type": "address"
        },
        {
          "internalType": "uint256",
          "name": "tokenId",
          "type": "uint256"
        }
      ],
      "name": "safeTransferFrom",
      "outputs": [],
      "stateMutability": "nonpayable",
      "type": "function"
    },
    {
      "inputs": [
        {
          "internalType": "address",
          "name": "from",
          "type": "address"
        },
        {
          "internalType": "address",
          "name": "to",
          "type": "address"
        },
        {
          "internalType": "uint256",
          "name": "tokenId",
          "type": "uint256"
        },
        {
          "internalType": "bytes",
          "name": "data",
          "type": "bytes"
        }
      ],
      "name": "safeTransferFrom",
      "outputs": [],
      "stateMutability": "nonpayable",
      "type": "function"
    },
    {
      "inputs": [
        {
          "internalType": "address[]",
          "name": "addresses",
          "type": "address[]"
        }
      ],
      "name": "setAllowList",
      "outputs": [],
      "stateMutability": "nonpayable",
      "type": "function"
    },
    {
      "inputs": [
        {
          "internalType": "address",
          "name": "operator",
          "type": "address"
        },
        {
          "internalType": "bool",
          "name": "approved",
          "type": "bool"
        }
      ],
      "name": "setApprovalForAll",
      "outputs": [],
      "stateMutability": "nonpayable",
      "type": "function"
    },
    {
      "inputs": [
        {
          "internalType": "bytes4",
          "name": "interfaceId",
          "type": "bytes4"
        }
      ],
      "name": "supportsInterface",
      "outputs": [
        {
          "internalType": "bool",
          "name": "",
          "type": "bool"
        }
      ],
      "stateMutability": "view",
      "type": "function"
    },
    {
      "inputs": [],
      "name": "symbol",
      "outputs": [
        {
          "internalType": "string",
          "name": "",
          "type": "string"
        }
      ],
      "stateMutability": "view",
      "type": "function"
    },
    {
      "inputs": [
        {
          "internalType": "uint256",
          "name": "index",
          "type": "uint256"
        }
      ],
      "name": "tokenByIndex",
      "outputs": [
        {
          "internalType": "uint256",
          "name": "",
          "type": "uint256"
        }
      ],
      "stateMutability": "view",
      "type": "function"
    },
    {
      "inputs": [
        {
          "internalType": "address",
          "name": "owner",
          "type": "address"
        },
        {
          "internalType": "uint256",
          "name": "index",
          "type": "uint256"
        }
      ],
      "name": "tokenOfOwnerByIndex",
      "outputs": [
        {
          "internalType": "uint256",
          "name": "",
          "type": "uint256"
        }
      ],
      "stateMutability": "view",
      "type": "function"
    },
    {
      "inputs": [
        {
          "internalType": "uint256",
          "name": "tokenId",
          "type": "uint256"
        }
      ],
      "name": "tokenURI",
      "outputs": [
        {
          "internalType": "string",
          "name": "",
          "type": "string"
        }
      ],
      "stateMutability": "view",
      "type": "function"
    },
    {
      "inputs": [],
      "name": "totalSupply",
      "outputs": [
        {
          "internalType": "uint256",
          "name": "",
          "type": "uint256"
        }
      ],
      "stateMutability": "view",
      "type": "function"
    },
    {
      "inputs": [
        {
          "internalType": "address",
          "name": "from",
          "type": "address"
        },
        {
          "internalType": "address",
          "name": "to",
          "type": "address"
        },
        {
          "internalType": "uint256",
          "name": "tokenId",
          "type": "uint256"
        }
      ],
      "name": "transferFrom",
      "outputs": [],
      "stateMutability": "nonpayable",
      "type": "function"
    },
    {
      "inputs": [
        {
          "internalType": "address",
          "name": "newOwner",
          "type": "address"
        }
      ],
      "name": "transferOwnership",
      "outputs": [],
      "stateMutability": "nonpayable",
      "type": "function"
    },
    {
      "inputs": [],
      "name": "unpause",
      "outputs": [],
      "stateMutability": "nonpayable",
      "type": "function"
    }
  ],
  "bytecode": "0x60806040526064600c556000600d60006101000a81548160ff0219169083151502179055506000600d60016101000a81548160ff0219169083151502179055503480156200004c57600080fd5b5060405162003985380380620039858339818101604052810190620000729190620002de565b806040518060400160405280600a81526020017f4461744869657542696e000000000000000000000000000000000000000000008152506040518060400160405280600381526020017f44484200000000000000000000000000000000000000000000000000000000008152508160009081620000f091906200058a565b5080600190816200010291906200058a565b5050506000600a60006101000a81548160ff021916908315150217905550600073ffffffffffffffffffffffffffffffffffffffff168173ffffffffffffffffffffffffffffffffffffffff1603620001955760006040517f1e4fbdf70000000000000000000000000000000000000000000000000000000081526004016200018c919062000682565b60405180910390fd5b620001a681620001ae60201b60201c565b50506200069f565b6000600a60019054906101000a900473ffffffffffffffffffffffffffffffffffffffff16905081600a60016101000a81548173ffffffffffffffffffffffffffffffffffffffff021916908373ffffffffffffffffffffffffffffffffffffffff1602179055508173ffffffffffffffffffffffffffffffffffffffff168173ffffffffffffffffffffffffffffffffffffffff167f8be0079c531659141344cd1fd0a4f28419497f9722a3daafe3b4186f6b6457e060405160405180910390a35050565b600080fd5b600073ffffffffffffffffffffffffffffffffffffffff82169050919050565b6000620002a68262000279565b9050919050565b620002b88162000299565b8114620002c457600080fd5b50565b600081519050620002d881620002ad565b92915050565b600060208284031215620002f757620002f662000274565b5b60006200030784828501620002c7565b91505092915050565b600081519050919050565b7f4e487b7100000000000000000000000000000000000000000000000000000000600052604160045260246000fd5b7f4e487b7100000000000000000000000000000000000000000000000000000000600052602260045260246000fd5b600060028204905060018216806200039257607f821691505b602082108103620003a857620003a76200034a565b5b50919050565b60008190508160005260206000209050919050565b60006020601f8301049050919050565b600082821b905092915050565b600060088302620004127fffffffffffffffffffffffffffffffffffffffffffffffffffffffffffffffff82620003d3565b6200041e8683620003d3565b95508019841693508086168417925050509392505050565b6000819050919050565b6000819050919050565b60006200046b620004656200045f8462000436565b62000440565b62000436565b9050919050565b6000819050919050565b62000487836200044a565b6200049f620004968262000472565b848454620003e0565b825550505050565b600090565b620004b6620004a7565b620004c38184846200047c565b505050565b5b81811015620004eb57620004df600082620004ac565b600181019050620004c9565b5050565b601f8211156200053a576200050481620003ae565b6200050f84620003c3565b810160208510156200051f578190505b620005376200052e85620003c3565b830182620004c8565b50505b505050565b600082821c905092915050565b60006200055f600019846008026200053f565b1980831691505092915050565b60006200057a83836200054c565b9150826002028217905092915050565b620005958262000310565b67ffffffffffffffff811115620005b157620005b06200031b565b5b620005bd825462000379565b620005ca828285620004ef565b600060209050601f831160018114620006025760008415620005ed578287015190505b620005f985826200056c565b86555062000669565b601f1984166200061286620003ae565b60005b828110156200063c5784890151825560018201915060208501945060208101905062000615565b868310156200065c578489015162000658601f8916826200054c565b8355505b6001600288020188555050505b505050505050565b6200067c8162000299565b82525050565b600060208201905062000699600083018462000671565b92915050565b6132d680620006af6000396000f3fe6080604052600436106101c25760003560e01c80635c975abb116100f757806395d89b4111610095578063c5b8bbb911610064578063c5b8bbb9146105ec578063c87b56dd14610617578063e985e9c514610654578063f2fde38b14610691576101c2565b806395d89b4114610544578063a22cb4651461056f578063b88d4fde14610598578063bcc9ca5b146105c1576101c2565b806370a08231116100d157806370a08231146104ae578063715018a6146104eb5780638456cb59146105025780638da5cb5b14610519576101c2565b80635c975abb1461041d5780636352211e146104485780636447c35d14610485576101c2565b80632848aeaf116101645780632f745c591161013e5780632f745c59146103635780633f4ba83a146103a057806342842e0e146103b75780634f6ccce7146103e0576101c2565b80632848aeaf146102f35780632e9b82f2146103305780632f48de791461033a576101c2565b8063095ea7b3116101a0578063095ea7b31461026c57806318160ddd1461029557806323b872dd146102c057806326092b83146102e9576101c2565b806301ffc9a7146101c757806306fdde0314610204578063081812fc1461022f575b600080fd5b3480156101d357600080fd5b506101ee60048036038101906101e9919061270e565b6106ba565b6040516101fb9190612756565b60405180910390f35b34801561021057600080fd5b506102196106cc565b6040516102269190612801565b60405180910390f35b34801561023b57600080fd5b5061025660048036038101906102519190612859565b61075e565b60405161026391906128c7565b60405180910390f35b34801561027857600080fd5b50610293600480360381019061028e919061290e565b61077a565b005b3480156102a157600080fd5b506102aa610790565b6040516102b7919061295d565b60405180910390f35b3480156102cc57600080fd5b506102e760048036038101906102e29190612978565b61079d565b005b6102f161089f565b005b3480156102ff57600080fd5b5061031a600480360381019061031591906129cb565b610941565b6040516103279190612756565b60405180910390f35b610338610961565b005b34801561034657600080fd5b50610361600480360381019061035c9190612a24565b610a8e565b005b34801561036f57600080fd5b5061038a6004803603810190610385919061290e565b610ace565b604051610397919061295d565b60405180910390f35b3480156103ac57600080fd5b506103b5610b77565b005b3480156103c357600080fd5b506103de60048036038101906103d99190612978565b610b89565b005b3480156103ec57600080fd5b5061040760048036038101906104029190612859565b610ba9565b604051610414919061295d565b60405180910390f35b34801561042957600080fd5b50610432610c1f565b60405161043f9190612756565b60405180910390f35b34801561045457600080fd5b5061046f600480360381019061046a9190612859565b610c36565b60405161047c91906128c7565b60405180910390f35b34801561049157600080fd5b506104ac60048036038101906104a79190612ac9565b610c48565b005b3480156104ba57600080fd5b506104d560048036038101906104d091906129cb565b610cf5565b6040516104e2919061295d565b60405180910390f35b3480156104f757600080fd5b50610500610daf565b005b34801561050e57600080fd5b50610517610dc3565b005b34801561052557600080fd5b5061052e610dd5565b60405161053b91906128c7565b60405180910390f35b34801561055057600080fd5b50610559610dff565b6040516105669190612801565b60405180910390f35b34801561057b57600080fd5b5061059660048036038101906105919190612b16565b610e91565b005b3480156105a457600080fd5b506105bf60048036038101906105ba9190612c86565b610ea7565b005b3480156105cd57600080fd5b506105d6610ec4565b6040516105e39190612756565b60405180910390f35b3480156105f857600080fd5b50610601610ed7565b60405161060e9190612756565b60405180910390f35b34801561062357600080fd5b5061063e60048036038101906106399190612859565b610eea565b60405161064b9190612801565b60405180910390f35b34801561066057600080fd5b5061067b60048036038101906106769190612d09565b610f53565b6040516106889190612756565b60405180910390f35b34801561069d57600080fd5b506106b860048036038101906106b391906129cb565b610fe7565b005b60006106c58261106d565b9050919050565b6060600080546106db90612d78565b80601f016020809104026020016040519081016040528092919081815260200182805461070790612d78565b80156107545780601f1061072957610100808354040283529160200191610754565b820191906000526020600020905b81548152906001019060200180831161073757829003601f168201915b5050505050905090565b6000610769826110e7565b506107738261116f565b9050919050565b61078c82826107876111ac565b6111b4565b5050565b6000600880549050905090565b600073ffffffffffffffffffffffffffffffffffffffff168273ffffffffffffffffffffffffffffffffffffffff160361080f5760006040517f64a0ae9200000000000000000000000000000000000000000000000000000000815260040161080691906128c7565b60405180910390fd5b6000610823838361081e6111ac565b6111c6565b90508373ffffffffffffffffffffffffffffffffffffffff168173ffffffffffffffffffffffffffffffffffffffff1614610899578382826040517f64283d7b00000000000000000000000000000000000000000000000000000000815260040161089093929190612da9565b60405180910390fd5b50505050565b600d60009054906101000a900460ff166108ee576040517f08c379a00000000000000000000000000000000000000000000000000000000081526004016108e590612e2c565b60405180910390fd5b662386f26fc100003414610937576040517f08c379a000000000000000000000000000000000000000000000000000000000815260040161092e90612e98565b60405180910390fd5b61093f6111dc565b565b600e6020528060005260406000206000915054906101000a900460ff1681565b600d60019054906101000a900460ff166109b0576040517f08c379a00000000000000000000000000000000000000000000000000000000081526004016109a790612f04565b60405180910390fd5b600e60003373ffffffffffffffffffffffffffffffffffffffff1673ffffffffffffffffffffffffffffffffffffffff16815260200190815260200160002060009054906101000a900460ff16610a3c576040517f08c379a0000000000000000000000000000000000000000000000000000000008152600401610a3390612f70565b60405180910390fd5b655af3107a40003414610a84576040517f08c379a0000000000000000000000000000000000000000000000000000000008152600401610a7b90612e98565b60405180910390fd5b610a8c6111dc565b565b610a9661124f565b81600d60006101000a81548160ff02191690831515021790555080600d60016101000a81548160ff0219169083151502179055505050565b6000610ad983610cf5565b8210610b1e5782826040517fa57d13dc000000000000000000000000000000000000000000000000000000008152600401610b15929190612f90565b60405180910390fd5b600660008473ffffffffffffffffffffffffffffffffffffffff1673ffffffffffffffffffffffffffffffffffffffff168152602001908152602001600020600083815260200190815260200160002054905092915050565b610b7f61124f565b610b876112d6565b565b610ba483838360405180602001604052806000815250610ea7565b505050565b6000610bb3610790565b8210610bf9576000826040517fa57d13dc000000000000000000000000000000000000000000000000000000008152600401610bf0929190612f90565b60405180910390fd5b60088281548110610c0d57610c0c612fb9565b5b90600052602060002001549050919050565b6000600a60009054906101000a900460ff16905090565b6000610c41826110e7565b9050919050565b610c5061124f565b60005b82829050811015610cf0576001600e6000858585818110610c7757610c76612fb9565b5b9050602002016020810190610c8c91906129cb565b73ffffffffffffffffffffffffffffffffffffffff1673ffffffffffffffffffffffffffffffffffffffff16815260200190815260200160002060006101000a81548160ff0219169083151502179055508080610ce890613017565b915050610c53565b505050565b60008073ffffffffffffffffffffffffffffffffffffffff168273ffffffffffffffffffffffffffffffffffffffff1603610d685760006040517f89c62b64000000000000000000000000000000000000000000000000000000008152600401610d5f91906128c7565b60405180910390fd5b600360008373ffffffffffffffffffffffffffffffffffffffff1673ffffffffffffffffffffffffffffffffffffffff168152602001908152602001600020549050919050565b610db761124f565b610dc16000611339565b565b610dcb61124f565b610dd36113ff565b565b6000600a60019054906101000a900473ffffffffffffffffffffffffffffffffffffffff16905090565b606060018054610e0e90612d78565b80601f0160208091040260200160405190810160405280929190818152602001828054610e3a90612d78565b8015610e875780601f10610e5c57610100808354040283529160200191610e87565b820191906000526020600020905b815481529060010190602001808311610e6a57829003601f168201915b5050505050905090565b610ea3610e9c6111ac565b8383611462565b5050565b610eb284848461079d565b610ebe848484846115d1565b50505050565b600d60009054906101000a900460ff1681565b600d60019054906101000a900460ff1681565b6060610ef5826110e7565b506000610f00611788565b90506000815111610f205760405180602001604052806000815250610f4b565b80610f2a8461179f565b604051602001610f3b92919061309b565b6040516020818303038152906040525b915050919050565b6000600560008473ffffffffffffffffffffffffffffffffffffffff1673ffffffffffffffffffffffffffffffffffffffff16815260200190815260200160002060008373ffffffffffffffffffffffffffffffffffffffff1673ffffffffffffffffffffffffffffffffffffffff16815260200190815260200160002060009054906101000a900460ff16905092915050565b610fef61124f565b600073ffffffffffffffffffffffffffffffffffffffff168173ffffffffffffffffffffffffffffffffffffffff16036110615760006040517f1e4fbdf700000000000000000000000000000000000000000000000000000000815260040161105891906128c7565b60405180910390fd5b61106a81611339565b50565b60007f780e9d63000000000000000000000000000000000000000000000000000000007bffffffffffffffffffffffffffffffffffffffffffffffffffffffff1916827bffffffffffffffffffffffffffffffffffffffffffffffffffffffff191614806110e057506110df8261186d565b5b9050919050565b6000806110f38361194f565b9050600073ffffffffffffffffffffffffffffffffffffffff168173ffffffffffffffffffffffffffffffffffffffff160361116657826040517f7e27328900000000000000000000000000000000000000000000000000000000815260040161115d919061295d565b60405180910390fd5b80915050919050565b60006004600083815260200190815260200160002060009054906101000a900473ffffffffffffffffffffffffffffffffffffffff169050919050565b600033905090565b6111c1838383600161198c565b505050565b60006111d3848484611b51565b90509392505050565b600c546111e7610790565b10611227576040517f08c379a000000000000000000000000000000000000000000000000000000000815260040161121e9061310b565b60405180910390fd5b6000600b600081548092919061123c90613017565b91905055905061124c3382611b6f565b50565b6112576111ac565b73ffffffffffffffffffffffffffffffffffffffff16611275610dd5565b73ffffffffffffffffffffffffffffffffffffffff16146112d4576112986111ac565b6040517f118cdaa70000000000000000000000000000000000000000000000000000000081526004016112cb91906128c7565b60405180910390fd5b565b6112de611b8d565b6000600a60006101000a81548160ff0219169083151502179055507f5db9ee0a495bf2e6ff9c91a7834c1ba4fdd244a5e8aa4e537bd38aeae4b073aa6113226111ac565b60405161132f91906128c7565b60405180910390a1565b6000600a60019054906101000a900473ffffffffffffffffffffffffffffffffffffffff16905081600a60016101000a81548173ffffffffffffffffffffffffffffffffffffffff021916908373ffffffffffffffffffffffffffffffffffffffff1602179055508173ffffffffffffffffffffffffffffffffffffffff168173ffffffffffffffffffffffffffffffffffffffff167f8be0079c531659141344cd1fd0a4f28419497f9722a3daafe3b4186f6b6457e060405160405180910390a35050565b611407611bcd565b6001600a60006101000a81548160ff0219169083151502179055507f62e78cea01bee320cd4e420270b5ea74000d11b0c9f74754ebdbfc544b05a25861144b6111ac565b60405161145891906128c7565b60405180910390a1565b600073ffffffffffffffffffffffffffffffffffffffff168273ffffffffffffffffffffffffffffffffffffffff16036114d357816040517f5b08ba180000000000000000000000000000000000000000000000000000000081526004016114ca91906128c7565b60405180910390fd5b80600560008573ffffffffffffffffffffffffffffffffffffffff1673ffffffffffffffffffffffffffffffffffffffff16815260200190815260200160002060008473ffffffffffffffffffffffffffffffffffffffff1673ffffffffffffffffffffffffffffffffffffffff16815260200190815260200160002060006101000a81548160ff0219169083151502179055508173ffffffffffffffffffffffffffffffffffffffff168373ffffffffffffffffffffffffffffffffffffffff167f17307eab39ab6107e8899845ad3d59bd9653f200f220920489ca2b5937696c31836040516115c49190612756565b60405180910390a3505050565b60008373ffffffffffffffffffffffffffffffffffffffff163b1115611782578273ffffffffffffffffffffffffffffffffffffffff1663150b7a026116156111ac565b8685856040518563ffffffff1660e01b81526004016116379493929190613180565b6020604051808303816000875af192505050801561167357506040513d601f19601f8201168201806040525081019061167091906131e1565b60015b6116f7573d80600081146116a3576040519150601f19603f3d011682016040523d82523d6000602084013e6116a8565b606091505b5060008151036116ef57836040517f64a0ae920000000000000000000000000000000000000000000000000000000081526004016116e691906128c7565b60405180910390fd5b805181602001fd5b63150b7a0260e01b7bffffffffffffffffffffffffffffffffffffffffffffffffffffffff1916817bffffffffffffffffffffffffffffffffffffffffffffffffffffffff19161461178057836040517f64a0ae9200000000000000000000000000000000000000000000000000000000815260040161177791906128c7565b60405180910390fd5b505b50505050565b606060405180602001604052806000815250905090565b6060600060016117ae84611c0e565b01905060008167ffffffffffffffff8111156117cd576117cc612b5b565b5b6040519080825280601f01601f1916602001820160405280156117ff5781602001600182028036833780820191505090505b509050600082602001820190505b600115611862578080600190039150507f3031323334353637383961626364656600000000000000000000000000000000600a86061a8153600a85816118565761185561320e565b5b0494506000850361180d575b819350505050919050565b60007f80ac58cd000000000000000000000000000000000000000000000000000000007bffffffffffffffffffffffffffffffffffffffffffffffffffffffff1916827bffffffffffffffffffffffffffffffffffffffffffffffffffffffff1916148061193857507f5b5e139f000000000000000000000000000000000000000000000000000000007bffffffffffffffffffffffffffffffffffffffffffffffffffffffff1916827bffffffffffffffffffffffffffffffffffffffffffffffffffffffff1916145b80611948575061194782611d61565b5b9050919050565b60006002600083815260200190815260200160002060009054906101000a900473ffffffffffffffffffffffffffffffffffffffff169050919050565b80806119c55750600073ffffffffffffffffffffffffffffffffffffffff168273ffffffffffffffffffffffffffffffffffffffff1614155b15611af95760006119d5846110e7565b9050600073ffffffffffffffffffffffffffffffffffffffff168373ffffffffffffffffffffffffffffffffffffffff1614158015611a4057508273ffffffffffffffffffffffffffffffffffffffff168173ffffffffffffffffffffffffffffffffffffffff1614155b8015611a535750611a518184610f53565b155b15611a9557826040517fa9fbf51f000000000000000000000000000000000000000000000000000000008152600401611a8c91906128c7565b60405180910390fd5b8115611af757838573ffffffffffffffffffffffffffffffffffffffff168273ffffffffffffffffffffffffffffffffffffffff167f8c5be1e5ebec7d5bd14f71427d1e84f3dd0314c0f7b2291e5b200ac8c7c3b92560405160405180910390a45b505b836004600085815260200190815260200160002060006101000a81548173ffffffffffffffffffffffffffffffffffffffff021916908373ffffffffffffffffffffffffffffffffffffffff16021790555050505050565b6000611b5b611bcd565b611b66848484611dcb565b90509392505050565b611b89828260405180602001604052806000815250611ee8565b5050565b611b95610c1f565b611bcb576040517f8dfc202b00000000000000000000000000000000000000000000000000000000815260040160405180910390fd5b565b611bd5610c1f565b15611c0c576040517fd93c066500000000000000000000000000000000000000000000000000000000815260040160405180910390fd5b565b600080600090507a184f03e93ff9f4daa797ed6e38ed64bf6a1f0100000000000000008310611c6c577a184f03e93ff9f4daa797ed6e38ed64bf6a1f0100000000000000008381611c6257611c6161320e565b5b0492506040810190505b6d04ee2d6d415b85acef81000000008310611ca9576d04ee2d6d415b85acef81000000008381611c9f57611c9e61320e565b5b0492506020810190505b662386f26fc100008310611cd857662386f26fc100008381611cce57611ccd61320e565b5b0492506010810190505b6305f5e1008310611d01576305f5e1008381611cf757611cf661320e565b5b0492506008810190505b6127108310611d26576127108381611d1c57611d1b61320e565b5b0492506004810190505b60648310611d495760648381611d3f57611d3e61320e565b5b0492506002810190505b600a8310611d58576001810190505b80915050919050565b60007f01ffc9a7000000000000000000000000000000000000000000000000000000007bffffffffffffffffffffffffffffffffffffffffffffffffffffffff1916827bffffffffffffffffffffffffffffffffffffffffffffffffffffffff1916149050919050565b600080611dd9858585611f04565b9050600073ffffffffffffffffffffffffffffffffffffffff168173ffffffffffffffffffffffffffffffffffffffff1603611e1d57611e188461211e565b611e5c565b8473ffffffffffffffffffffffffffffffffffffffff168173ffffffffffffffffffffffffffffffffffffffff1614611e5b57611e5a8185612167565b5b5b600073ffffffffffffffffffffffffffffffffffffffff168573ffffffffffffffffffffffffffffffffffffffff1603611e9e57611e99846122c8565b611edd565b8473ffffffffffffffffffffffffffffffffffffffff168173ffffffffffffffffffffffffffffffffffffffff1614611edc57611edb8585612399565b5b5b809150509392505050565b611ef28383612424565b611eff60008484846115d1565b505050565b600080611f108461194f565b9050600073ffffffffffffffffffffffffffffffffffffffff168373ffffffffffffffffffffffffffffffffffffffff1614611f5257611f5181848661251d565b5b600073ffffffffffffffffffffffffffffffffffffffff168173ffffffffffffffffffffffffffffffffffffffff1614611fe357611f9460008560008061198c565b6001600360008373ffffffffffffffffffffffffffffffffffffffff1673ffffffffffffffffffffffffffffffffffffffff168152602001908152602001600020600082825403925050819055505b600073ffffffffffffffffffffffffffffffffffffffff168573ffffffffffffffffffffffffffffffffffffffff1614612066576001600360008773ffffffffffffffffffffffffffffffffffffffff1673ffffffffffffffffffffffffffffffffffffffff168152602001908152602001600020600082825401925050819055505b846002600086815260200190815260200160002060006101000a81548173ffffffffffffffffffffffffffffffffffffffff021916908373ffffffffffffffffffffffffffffffffffffffff160217905550838573ffffffffffffffffffffffffffffffffffffffff168273ffffffffffffffffffffffffffffffffffffffff167fddf252ad1be2c89b69c2b068fc378daa952ba7f163c4a11628f55a4df523b3ef60405160405180910390a4809150509392505050565b6008805490506009600083815260200190815260200160002081905550600881908060018154018082558091505060019003906000526020600020016000909190919091505550565b600061217283610cf5565b9050600060076000848152602001908152602001600020549050818114612257576000600660008673ffffffffffffffffffffffffffffffffffffffff1673ffffffffffffffffffffffffffffffffffffffff168152602001908152602001600020600084815260200190815260200160002054905080600660008773ffffffffffffffffffffffffffffffffffffffff1673ffffffffffffffffffffffffffffffffffffffff168152602001908152602001600020600084815260200190815260200160002081905550816007600083815260200190815260200160002081905550505b6007600084815260200190815260200160002060009055600660008573ffffffffffffffffffffffffffffffffffffffff1673ffffffffffffffffffffffffffffffffffffffff16815260200190815260200160002060008381526020019081526020016000206000905550505050565b600060016008805490506122dc919061323d565b905060006009600084815260200190815260200160002054905060006008838154811061230c5761230b612fb9565b5b90600052602060002001549050806008838154811061232e5761232d612fb9565b5b90600052602060002001819055508160096000838152602001908152602001600020819055506009600085815260200190815260200160002060009055600880548061237d5761237c613271565b5b6001900381819060005260206000200160009055905550505050565b600060016123a684610cf5565b6123b0919061323d565b905081600660008573ffffffffffffffffffffffffffffffffffffffff1673ffffffffffffffffffffffffffffffffffffffff168152602001908152602001600020600083815260200190815260200160002081905550806007600084815260200190815260200160002081905550505050565b600073ffffffffffffffffffffffffffffffffffffffff168273ffffffffffffffffffffffffffffffffffffffff16036124965760006040517f64a0ae9200000000000000000000000000000000000000000000000000000000815260040161248d91906128c7565b60405180910390fd5b60006124a4838360006111c6565b9050600073ffffffffffffffffffffffffffffffffffffffff168173ffffffffffffffffffffffffffffffffffffffff16146125185760006040517f73c6ac6e00000000000000000000000000000000000000000000000000000000815260040161250f91906128c7565b60405180910390fd5b505050565b6125288383836125e1565b6125dc57600073ffffffffffffffffffffffffffffffffffffffff168373ffffffffffffffffffffffffffffffffffffffff160361259d57806040517f7e273289000000000000000000000000000000000000000000000000000000008152600401612594919061295d565b60405180910390fd5b81816040517f177e802f0000000000000000000000000000000000000000000000000000000081526004016125d3929190612f90565b60405180910390fd5b505050565b60008073ffffffffffffffffffffffffffffffffffffffff168373ffffffffffffffffffffffffffffffffffffffff161415801561269957508273ffffffffffffffffffffffffffffffffffffffff168473ffffffffffffffffffffffffffffffffffffffff16148061265a57506126598484610f53565b5b8061269857508273ffffffffffffffffffffffffffffffffffffffff166126808361116f565b73ffffffffffffffffffffffffffffffffffffffff16145b5b90509392505050565b6000604051905090565b600080fd5b600080fd5b60007fffffffff0000000000000000000000000000000000000000000000000000000082169050919050565b6126eb816126b6565b81146126f657600080fd5b50565b600081359050612708816126e2565b92915050565b600060208284031215612724576127236126ac565b5b6000612732848285016126f9565b91505092915050565b60008115159050919050565b6127508161273b565b82525050565b600060208201905061276b6000830184612747565b92915050565b600081519050919050565b600082825260208201905092915050565b60005b838110156127ab578082015181840152602081019050612790565b60008484015250505050565b6000601f19601f8301169050919050565b60006127d382612771565b6127dd818561277c565b93506127ed81856020860161278d565b6127f6816127b7565b840191505092915050565b6000602082019050818103600083015261281b81846127c8565b905092915050565b6000819050919050565b61283681612823565b811461284157600080fd5b50565b6000813590506128538161282d565b92915050565b60006020828403121561286f5761286e6126ac565b5b600061287d84828501612844565b91505092915050565b600073ffffffffffffffffffffffffffffffffffffffff82169050919050565b60006128b182612886565b9050919050565b6128c1816128a6565b82525050565b60006020820190506128dc60008301846128b8565b92915050565b6128eb816128a6565b81146128f657600080fd5b50565b600081359050612908816128e2565b92915050565b60008060408385031215612925576129246126ac565b5b6000612933858286016128f9565b925050602061294485828601612844565b9150509250929050565b61295781612823565b82525050565b6000602082019050612972600083018461294e565b92915050565b600080600060608486031215612991576129906126ac565b5b600061299f868287016128f9565b93505060206129b0868287016128f9565b92505060406129c186828701612844565b9150509250925092565b6000602082840312156129e1576129e06126ac565b5b60006129ef848285016128f9565b91505092915050565b612a018161273b565b8114612a0c57600080fd5b50565b600081359050612a1e816129f8565b92915050565b60008060408385031215612a3b57612a3a6126ac565b5b6000612a4985828601612a0f565b9250506020612a5a85828601612a0f565b9150509250929050565b600080fd5b600080fd5b600080fd5b60008083601f840112612a8957612a88612a64565b5b8235905067ffffffffffffffff811115612aa657612aa5612a69565b5b602083019150836020820283011115612ac257612ac1612a6e565b5b9250929050565b60008060208385031215612ae057612adf6126ac565b5b600083013567ffffffffffffffff811115612afe57612afd6126b1565b5b612b0a85828601612a73565b92509250509250929050565b60008060408385031215612b2d57612b2c6126ac565b5b6000612b3b858286016128f9565b9250506020612b4c85828601612a0f565b9150509250929050565b600080fd5b7f4e487b7100000000000000000000000000000000000000000000000000000000600052604160045260246000fd5b612b93826127b7565b810181811067ffffffffffffffff82111715612bb257612bb1612b5b565b5b80604052505050565b6000612bc56126a2565b9050612bd18282612b8a565b919050565b600067ffffffffffffffff821115612bf157612bf0612b5b565b5b612bfa826127b7565b9050602081019050919050565b82818337600083830152505050565b6000612c29612c2484612bd6565b612bbb565b905082815260208101848484011115612c4557612c44612b56565b5b612c50848285612c07565b509392505050565b600082601f830112612c6d57612c6c612a64565b5b8135612c7d848260208601612c16565b91505092915050565b60008060008060808587031215612ca057612c9f6126ac565b5b6000612cae878288016128f9565b9450506020612cbf878288016128f9565b9350506040612cd087828801612844565b925050606085013567ffffffffffffffff811115612cf157612cf06126b1565b5b612cfd87828801612c58565b91505092959194509250565b60008060408385031215612d2057612d1f6126ac565b5b6000612d2e858286016128f9565b9250506020612d3f858286016128f9565b9150509250929050565b7f4e487b7100000000000000000000000000000000000000000000000000000000600052602260045260246000fd5b60006002820490506001821680612d9057607f821691505b602082108103612da357612da2612d49565b5b50919050565b6000606082019050612dbe60008301866128b8565b612dcb602083018561294e565b612dd860408301846128b8565b949350505050565b7f5075626c6963204d696e7420436c6f7365640000000000000000000000000000600082015250565b6000612e1660128361277c565b9150612e2182612de0565b602082019050919050565b60006020820190508181036000830152612e4581612e09565b9050919050565b7f4b686f6e67206475207469656e00000000000000000000000000000000000000600082015250565b6000612e82600d8361277c565b9150612e8d82612e4c565b602082019050919050565b60006020820190508181036000830152612eb181612e75565b9050919050565b7f416c6c6f77697374204d696e7420436c6f736564000000000000000000000000600082015250565b6000612eee60148361277c565b9150612ef982612eb8565b602082019050919050565b60006020820190508181036000830152612f1d81612ee1565b9050919050565b7f42616e206b686f6e6720636f20717579656e2100000000000000000000000000600082015250565b6000612f5a60138361277c565b9150612f6582612f24565b602082019050919050565b60006020820190508181036000830152612f8981612f4d565b9050919050565b6000604082019050612fa560008301856128b8565b612fb2602083018461294e565b9392505050565b7f4e487b7100000000000000000000000000000000000000000000000000000000600052603260045260246000fd5b7f4e487b7100000000000000000000000000000000000000000000000000000000600052601160045260246000fd5b600061302282612823565b91507fffffffffffffffffffffffffffffffffffffffffffffffffffffffffffffffff820361305457613053612fe8565b5b600182019050919050565b600081905092915050565b600061307582612771565b61307f818561305f565b935061308f81856020860161278d565b80840191505092915050565b60006130a7828561306a565b91506130b3828461306a565b91508190509392505050565b7f4b686f6e6720636f6e204e465421000000000000000000000000000000000000600082015250565b60006130f5600e8361277c565b9150613100826130bf565b602082019050919050565b60006020820190508181036000830152613124816130e8565b9050919050565b600081519050919050565b600082825260208201905092915050565b60006131528261312b565b61315c8185613136565b935061316c81856020860161278d565b613175816127b7565b840191505092915050565b600060808201905061319560008301876128b8565b6131a260208301866128b8565b6131af604083018561294e565b81810360608301526131c18184613147565b905095945050505050565b6000815190506131db816126e2565b92915050565b6000602082840312156131f7576131f66126ac565b5b6000613205848285016131cc565b91505092915050565b7f4e487b7100000000000000000000000000000000000000000000000000000000600052601260045260246000fd5b600061324882612823565b915061325383612823565b925082820390508181111561326b5761326a612fe8565b5b92915050565b7f4e487b7100000000000000000000000000000000000000000000000000000000600052603160045260246000fdfea264697066735822122030903d4cbfc98f6aef51bb0a2680dab2bc26675a241107843a51e83f18b52bce64736f6c63430008140033",
  "linkReferences": {},
  "deployedLinkReferences": {}
}