{
  "_format": "hh-sol-artifact-1",
  "contractName": "DatHieuBin",
  "sourceName": "contracts/DHB.sol",
  "abi": [
    {
      "inputs": [
        {
          "internalType": "address",
          "name": "initialOwner",
          "type": "address"
        }
      ],
      "stateMutability": "nonpayable",
      "type": "constructor"
    },
    {
      "inputs": [],
      "name": "ERC721EnumerableForbiddenBatchMint",
      "type": "error"
    },
    {
      "inputs": [
        {
          "internalType": "address",
          "name": "sender",
          "type": "address"
        },
        {
          "internalType": "uint256",
          "name": "tokenId",
          "type": "uint256"
        },
        {
          "internalType": "address",
          "name": "owner",
          "type": "address"
        }
      ],
      "name": "ERC721IncorrectOwner",
      "type": "error"
    },
    {
      "inputs": [
        {
          "internalType": "address",
          "name": "operator",
          "type": "address"
        },
        {
          "internalType": "uint256",
          "name": "tokenId",
          "type": "uint256"
        }
      ],
      "name": "ERC721InsufficientApproval",
      "type": "error"
    },
    {
      "inputs": [
        {
          "internalType": "address",
          "name": "approver",
          "type": "address"
        }
      ],
      "name": "ERC721InvalidApprover",
      "type": "error"
    },
    {
      "inputs": [
        {
          "internalType": "address",
          "name": "operator",
          "type": "address"
        }
      ],
      "name": "ERC721InvalidOperator",
      "type": "error"
    },
    {
      "inputs": [
        {
          "internalType": "address",
          "name": "owner",
          "type": "address"
        }
      ],
      "name": "ERC721InvalidOwner",
      "type": "error"
    },
    {
      "inputs": [
        {
          "internalType": "address",
          "name": "receiver",
          "type": "address"
        }
      ],
      "name": "ERC721InvalidReceiver",
      "type": "error"
    },
    {
      "inputs": [
        {
          "internalType": "address",
          "name": "sender",
          "type": "address"
        }
      ],
      "name": "ERC721InvalidSender",
      "type": "error"
    },
    {
      "inputs": [
        {
          "internalType": "uint256",
          "name": "tokenId",
          "type": "uint256"
        }
      ],
      "name": "ERC721NonexistentToken",
      "type": "error"
    },
    {
      "inputs": [
        {
          "internalType": "address",
          "name": "owner",
          "type": "address"
        },
        {
          "internalType": "uint256",
          "name": "index",
          "type": "uint256"
        }
      ],
      "name": "ERC721OutOfBoundsIndex",
      "type": "error"
    },
    {
      "inputs": [],
      "name": "EnforcedPause",
      "type": "error"
    },
    {
      "inputs": [],
      "name": "ExpectedPause",
      "type": "error"
    },
    {
      "inputs": [
        {
          "internalType": "address",
          "name": "owner",
          "type": "address"
        }
      ],
      "name": "OwnableInvalidOwner",
      "type": "error"
    },
    {
      "inputs": [
        {
          "internalType": "address",
          "name": "account",
          "type": "address"
        }
      ],
      "name": "OwnableUnauthorizedAccount",
      "type": "error"
    },
    {
      "anonymous": false,
      "inputs": [
        {
          "indexed": true,
          "internalType": "address",
          "name": "owner",
          "type": "address"
        },
        {
          "indexed": true,
          "internalType": "address",
          "name": "approved",
          "type": "address"
        },
        {
          "indexed": true,
          "internalType": "uint256",
          "name": "tokenId",
          "type": "uint256"
        }
      ],
      "name": "Approval",
      "type": "event"
    },
    {
      "anonymous": false,
      "inputs": [
        {
          "indexed": true,
          "internalType": "address",
          "name": "owner",
          "type": "address"
        },
        {
          "indexed": true,
          "internalType": "address",
          "name": "operator",
          "type": "address"
        },
        {
          "indexed": false,
          "internalType": "bool",
          "name": "approved",
          "type": "bool"
        }
      ],
      "name": "ApprovalForAll",
      "type": "event"
    },
    {
      "anonymous": false,
      "inputs": [
        {
          "indexed": true,
          "internalType": "address",
          "name": "previousOwner",
          "type": "address"
        },
        {
          "indexed": true,
          "internalType": "address",
          "name": "newOwner",
          "type": "address"
        }
      ],
      "name": "OwnershipTransferred",
      "type": "event"
    },
    {
      "anonymous": false,
      "inputs": [
        {
          "indexed": false,
          "internalType": "address",
          "name": "account",
          "type": "address"
        }
      ],
      "name": "Paused",
      "type": "event"
    },
    {
      "anonymous": false,
      "inputs": [
        {
          "indexed": true,
          "internalType": "address",
          "name": "from",
          "type": "address"
        },
        {
          "indexed": true,
          "internalType": "address",
          "name": "to",
          "type": "address"
        },
        {
          "indexed": true,
          "internalType": "uint256",
          "name": "tokenId",
          "type": "uint256"
        }
      ],
      "name": "Transfer",
      "type": "event"
    },
    {
      "anonymous": false,
      "inputs": [
        {
          "indexed": false,
          "internalType": "address",
          "name": "account",
          "type": "address"
        }
      ],
      "name": "Unpaused",
      "type": "event"
    },
    {
      "inputs": [
        {
          "internalType": "address",
          "name": "to",
          "type": "address"
        },
        {
          "internalType": "uint256",
          "name": "tokenId",
          "type": "uint256"
        }
      ],
      "name": "approve",
      "outputs": [],
      "stateMutability": "nonpayable",
      "type": "function"
    },
    {
      "inputs": [
        {
          "internalType": "address",
          "name": "owner",
          "type": "address"
        }
      ],
      "name": "balanceOf",
      "outputs": [
        {
          "internalType": "uint256",
          "name": "",
          "type": "uint256"
        }
      ],
      "stateMutability": "view",
      "type": "function"
    },
    {
      "inputs": [
        {
          "internalType": "uint256",
          "name": "tokenId",
          "type": "uint256"
        }
      ],
      "name": "getApproved",
      "outputs": [
        {
          "internalType": "address",
          "name": "",
          "type": "address"
        }
      ],
      "stateMutability": "view",
      "type": "function"
    },
    {
      "inputs": [
        {
          "internalType": "address",
          "name": "owner",
          "type": "address"
        },
        {
          "internalType": "address",
          "name": "operator",
          "type": "address"
        }
      ],
      "name": "isApprovedForAll",
      "outputs": [
        {
          "internalType": "bool",
          "name": "",
          "type": "bool"
        }
      ],
      "stateMutability": "view",
      "type": "function"
    },
    {
      "inputs": [],
      "name": "name",
      "outputs": [
        {
          "internalType": "string",
          "name": "",
          "type": "string"
        }
      ],
      "stateMutability": "view",
      "type": "function"
    },
    {
      "inputs": [],
      "name": "owner",
      "outputs": [
        {
          "internalType": "address",
          "name": "",
          "type": "address"
        }
      ],
      "stateMutability": "view",
      "type": "function"
    },
    {
      "inputs": [
        {
          "internalType": "uint256",
          "name": "tokenId",
          "type": "uint256"
        }
      ],
      "name": "ownerOf",
      "outputs": [
        {
          "internalType": "address",
          "name": "",
          "type": "address"
        }
      ],
      "stateMutability": "view",
      "type": "function"
    },
    {
      "inputs": [],
      "name": "pause",
      "outputs": [],
      "stateMutability": "nonpayable",
      "type": "function"
    },
    {
      "inputs": [],
      "name": "paused",
      "outputs": [
        {
          "internalType": "bool",
          "name": "",
          "type": "bool"
        }
      ],
      "stateMutability": "view",
      "type": "function"
    },
    {
      "inputs": [],
      "name": "renounceOwnership",
      "outputs": [],
      "stateMutability": "nonpayable",
      "type": "function"
    },
    {
      "inputs": [
        {
          "internalType": "address",
          "name": "to",
          "type": "address"
        }
      ],
      "name": "safeMint",
      "outputs": [],
      "stateMutability": "nonpayable",
      "type": "function"
    },
    {
      "inputs": [
        {
          "internalType": "address",
          "name": "from",
          "type": "address"
        },
        {
          "internalType": "address",
          "name": "to",
          "type": "address"
        },
        {
          "internalType": "uint256",
          "name": "tokenId",
          "type": "uint256"
        }
      ],
      "name": "safeTransferFrom",
      "outputs": [],
      "stateMutability": "nonpayable",
      "type": "function"
    },
    {
      "inputs": [
        {
          "internalType": "address",
          "name": "from",
          "type": "address"
        },
        {
          "internalType": "address",
          "name": "to",
          "type": "address"
        },
        {
          "internalType": "uint256",
          "name": "tokenId",
          "type": "uint256"
        },
        {
          "internalType": "bytes",
          "name": "data",
          "type": "bytes"
        }
      ],
      "name": "safeTransferFrom",
      "outputs": [],
      "stateMutability": "nonpayable",
      "type": "function"
    },
    {
      "inputs": [
        {
          "internalType": "address",
          "name": "operator",
          "type": "address"
        },
        {
          "internalType": "bool",
          "name": "approved",
          "type": "bool"
        }
      ],
      "name": "setApprovalForAll",
      "outputs": [],
      "stateMutability": "nonpayable",
      "type": "function"
    },
    {
      "inputs": [
        {
          "internalType": "bytes4",
          "name": "interfaceId",
          "type": "bytes4"
        }
      ],
      "name": "supportsInterface",
      "outputs": [
        {
          "internalType": "bool",
          "name": "",
          "type": "bool"
        }
      ],
      "stateMutability": "view",
      "type": "function"
    },
    {
      "inputs": [],
      "name": "symbol",
      "outputs": [
        {
          "internalType": "string",
          "name": "",
          "type": "string"
        }
      ],
      "stateMutability": "view",
      "type": "function"
    },
    {
      "inputs": [
        {
          "internalType": "uint256",
          "name": "index",
          "type": "uint256"
        }
      ],
      "name": "tokenByIndex",
      "outputs": [
        {
          "internalType": "uint256",
          "name": "",
          "type": "uint256"
        }
      ],
      "stateMutability": "view",
      "type": "function"
    },
    {
      "inputs": [
        {
          "internalType": "address",
          "name": "owner",
          "type": "address"
        },
        {
          "internalType": "uint256",
          "name": "index",
          "type": "uint256"
        }
      ],
      "name": "tokenOfOwnerByIndex",
      "outputs": [
        {
          "internalType": "uint256",
          "name": "",
          "type": "uint256"
        }
      ],
      "stateMutability": "view",
      "type": "function"
    },
    {
      "inputs": [
        {
          "internalType": "uint256",
          "name": "tokenId",
          "type": "uint256"
        }
      ],
      "name": "tokenURI",
      "outputs": [
        {
          "internalType": "string",
          "name": "",
          "type": "string"
        }
      ],
      "stateMutability": "view",
      "type": "function"
    },
    {
      "inputs": [],
      "name": "totalSupply",
      "outputs": [
        {
          "internalType": "uint256",
          "name": "",
          "type": "uint256"
        }
      ],
      "stateMutability": "view",
      "type": "function"
    },
    {
      "inputs": [
        {
          "internalType": "address",
          "name": "from",
          "type": "address"
        },
        {
          "internalType": "address",
          "name": "to",
          "type": "address"
        },
        {
          "internalType": "uint256",
          "name": "tokenId",
          "type": "uint256"
        }
      ],
      "name": "transferFrom",
      "outputs": [],
      "stateMutability": "nonpayable",
      "type": "function"
    },
    {
      "inputs": [
        {
          "internalType": "address",
          "name": "newOwner",
          "type": "address"
        }
      ],
      "name": "transferOwnership",
      "outputs": [],
      "stateMutability": "nonpayable",
      "type": "function"
    },
    {
      "inputs": [],
      "name": "unpause",
      "outputs": [],
      "stateMutability": "nonpayable",
      "type": "function"
    }
  ],
  "bytecode": "0x60806040523480156200001157600080fd5b50604051620030cc380380620030cc8339818101604052810190620000379190620002a3565b806040518060400160405280600a81526020017f4461744869657542696e000000000000000000000000000000000000000000008152506040518060400160405280600381526020017f44484200000000000000000000000000000000000000000000000000000000008152508160009081620000b591906200054f565b508060019081620000c791906200054f565b5050506000600a60006101000a81548160ff021916908315150217905550600073ffffffffffffffffffffffffffffffffffffffff168173ffffffffffffffffffffffffffffffffffffffff16036200015a5760006040517f1e4fbdf700000000000000000000000000000000000000000000000000000000815260040162000151919062000647565b60405180910390fd5b6200016b816200017360201b60201c565b505062000664565b6000600a60019054906101000a900473ffffffffffffffffffffffffffffffffffffffff16905081600a60016101000a81548173ffffffffffffffffffffffffffffffffffffffff021916908373ffffffffffffffffffffffffffffffffffffffff1602179055508173ffffffffffffffffffffffffffffffffffffffff168173ffffffffffffffffffffffffffffffffffffffff167f8be0079c531659141344cd1fd0a4f28419497f9722a3daafe3b4186f6b6457e060405160405180910390a35050565b600080fd5b600073ffffffffffffffffffffffffffffffffffffffff82169050919050565b60006200026b826200023e565b9050919050565b6200027d816200025e565b81146200028957600080fd5b50565b6000815190506200029d8162000272565b92915050565b600060208284031215620002bc57620002bb62000239565b5b6000620002cc848285016200028c565b91505092915050565b600081519050919050565b7f4e487b7100000000000000000000000000000000000000000000000000000000600052604160045260246000fd5b7f4e487b7100000000000000000000000000000000000000000000000000000000600052602260045260246000fd5b600060028204905060018216806200035757607f821691505b6020821081036200036d576200036c6200030f565b5b50919050565b60008190508160005260206000209050919050565b60006020601f8301049050919050565b600082821b905092915050565b600060088302620003d77fffffffffffffffffffffffffffffffffffffffffffffffffffffffffffffffff8262000398565b620003e3868362000398565b95508019841693508086168417925050509392505050565b6000819050919050565b6000819050919050565b6000620004306200042a6200042484620003fb565b62000405565b620003fb565b9050919050565b6000819050919050565b6200044c836200040f565b620004646200045b8262000437565b848454620003a5565b825550505050565b600090565b6200047b6200046c565b6200048881848462000441565b505050565b5b81811015620004b057620004a460008262000471565b6001810190506200048e565b5050565b601f821115620004ff57620004c98162000373565b620004d48462000388565b81016020851015620004e4578190505b620004fc620004f38562000388565b8301826200048d565b50505b505050565b600082821c905092915050565b6000620005246000198460080262000504565b1980831691505092915050565b60006200053f838362000511565b9150826002028217905092915050565b6200055a82620002d5565b67ffffffffffffffff811115620005765762000575620002e0565b5b6200058282546200033e565b6200058f828285620004b4565b600060209050601f831160018114620005c75760008415620005b2578287015190505b620005be858262000531565b8655506200062e565b601f198416620005d78662000373565b60005b828110156200060157848901518255600182019150602085019450602081019050620005da565b868310156200062157848901516200061d601f89168262000511565b8355505b6001600288020188555050505b505050505050565b62000641816200025e565b82525050565b60006020820190506200065e600083018462000636565b92915050565b612a5880620006746000396000f3fe608060405234801561001057600080fd5b506004361061014d5760003560e01c80635c975abb116100c357806395d89b411161007c57806395d89b4114610378578063a22cb46514610396578063b88d4fde146103b2578063c87b56dd146103ce578063e985e9c5146103fe578063f2fde38b1461042e5761014d565b80635c975abb146102c85780636352211e146102e657806370a0823114610316578063715018a6146103465780638456cb59146103505780638da5cb5b1461035a5761014d565b806323b872dd1161011557806323b872dd1461020a5780632f745c59146102265780633f4ba83a1461025657806340d097c31461026057806342842e0e1461027c5780634f6ccce7146102985761014d565b806301ffc9a71461015257806306fdde0314610182578063081812fc146101a0578063095ea7b3146101d057806318160ddd146101ec575b600080fd5b61016c60048036038101906101679190612163565b61044a565b60405161017991906121ab565b60405180910390f35b61018a61045c565b6040516101979190612256565b60405180910390f35b6101ba60048036038101906101b591906122ae565b6104ee565b6040516101c7919061231c565b60405180910390f35b6101ea60048036038101906101e59190612363565b61050a565b005b6101f4610520565b60405161020191906123b2565b60405180910390f35b610224600480360381019061021f91906123cd565b61052d565b005b610240600480360381019061023b9190612363565b61062f565b60405161024d91906123b2565b60405180910390f35b61025e6106d8565b005b61027a60048036038101906102759190612420565b6106ea565b005b610296600480360381019061029191906123cd565b61071b565b005b6102b260048036038101906102ad91906122ae565b61073b565b6040516102bf91906123b2565b60405180910390f35b6102d06107b1565b6040516102dd91906121ab565b60405180910390f35b61030060048036038101906102fb91906122ae565b6107c8565b60405161030d919061231c565b60405180910390f35b610330600480360381019061032b9190612420565b6107da565b60405161033d91906123b2565b60405180910390f35b61034e610894565b005b6103586108a8565b005b6103626108ba565b60405161036f919061231c565b60405180910390f35b6103806108e4565b60405161038d9190612256565b60405180910390f35b6103b060048036038101906103ab9190612479565b610976565b005b6103cc60048036038101906103c791906125ee565b61098c565b005b6103e860048036038101906103e391906122ae565b6109a9565b6040516103f59190612256565b60405180910390f35b61041860048036038101906104139190612671565b610a12565b60405161042591906121ab565b60405180910390f35b61044860048036038101906104439190612420565b610aa6565b005b600061045582610b2c565b9050919050565b60606000805461046b906126e0565b80601f0160208091040260200160405190810160405280929190818152602001828054610497906126e0565b80156104e45780601f106104b9576101008083540402835291602001916104e4565b820191906000526020600020905b8154815290600101906020018083116104c757829003601f168201915b5050505050905090565b60006104f982610ba6565b5061050382610c2e565b9050919050565b61051c8282610517610c6b565b610c73565b5050565b6000600880549050905090565b600073ffffffffffffffffffffffffffffffffffffffff168273ffffffffffffffffffffffffffffffffffffffff160361059f5760006040517f64a0ae92000000000000000000000000000000000000000000000000000000008152600401610596919061231c565b60405180910390fd5b60006105b383836105ae610c6b565b610c85565b90508373ffffffffffffffffffffffffffffffffffffffff168173ffffffffffffffffffffffffffffffffffffffff1614610629578382826040517f64283d7b00000000000000000000000000000000000000000000000000000000815260040161062093929190612711565b60405180910390fd5b50505050565b600061063a836107da565b821061067f5782826040517fa57d13dc000000000000000000000000000000000000000000000000000000008152600401610676929190612748565b60405180910390fd5b600660008473ffffffffffffffffffffffffffffffffffffffff1673ffffffffffffffffffffffffffffffffffffffff168152602001908152602001600020600083815260200190815260200160002054905092915050565b6106e0610c9b565b6106e8610d22565b565b6106f2610c9b565b6000600b6000815480929190610707906127a0565b9190505590506107178282610d85565b5050565b6107368383836040518060200160405280600081525061098c565b505050565b6000610745610520565b821061078b576000826040517fa57d13dc000000000000000000000000000000000000000000000000000000008152600401610782929190612748565b60405180910390fd5b6008828154811061079f5761079e6127e8565b5b90600052602060002001549050919050565b6000600a60009054906101000a900460ff16905090565b60006107d382610ba6565b9050919050565b60008073ffffffffffffffffffffffffffffffffffffffff168273ffffffffffffffffffffffffffffffffffffffff160361084d5760006040517f89c62b64000000000000000000000000000000000000000000000000000000008152600401610844919061231c565b60405180910390fd5b600360008373ffffffffffffffffffffffffffffffffffffffff1673ffffffffffffffffffffffffffffffffffffffff168152602001908152602001600020549050919050565b61089c610c9b565b6108a66000610da3565b565b6108b0610c9b565b6108b8610e69565b565b6000600a60019054906101000a900473ffffffffffffffffffffffffffffffffffffffff16905090565b6060600180546108f3906126e0565b80601f016020809104026020016040519081016040528092919081815260200182805461091f906126e0565b801561096c5780601f106109415761010080835404028352916020019161096c565b820191906000526020600020905b81548152906001019060200180831161094f57829003601f168201915b5050505050905090565b610988610981610c6b565b8383610ecc565b5050565b61099784848461052d565b6109a38484848461103b565b50505050565b60606109b482610ba6565b5060006109bf6111f2565b905060008151116109df5760405180602001604052806000815250610a0a565b806109e984611212565b6040516020016109fa929190612853565b6040516020818303038152906040525b915050919050565b6000600560008473ffffffffffffffffffffffffffffffffffffffff1673ffffffffffffffffffffffffffffffffffffffff16815260200190815260200160002060008373ffffffffffffffffffffffffffffffffffffffff1673ffffffffffffffffffffffffffffffffffffffff16815260200190815260200160002060009054906101000a900460ff16905092915050565b610aae610c9b565b600073ffffffffffffffffffffffffffffffffffffffff168173ffffffffffffffffffffffffffffffffffffffff1603610b205760006040517f1e4fbdf7000000000000000000000000000000000000000000000000000000008152600401610b17919061231c565b60405180910390fd5b610b2981610da3565b50565b60007f780e9d63000000000000000000000000000000000000000000000000000000007bffffffffffffffffffffffffffffffffffffffffffffffffffffffff1916827bffffffffffffffffffffffffffffffffffffffffffffffffffffffff19161480610b9f5750610b9e826112e0565b5b9050919050565b600080610bb2836113c2565b9050600073ffffffffffffffffffffffffffffffffffffffff168173ffffffffffffffffffffffffffffffffffffffff1603610c2557826040517f7e273289000000000000000000000000000000000000000000000000000000008152600401610c1c91906123b2565b60405180910390fd5b80915050919050565b60006004600083815260200190815260200160002060009054906101000a900473ffffffffffffffffffffffffffffffffffffffff169050919050565b600033905090565b610c8083838360016113ff565b505050565b6000610c928484846115c4565b90509392505050565b610ca3610c6b565b73ffffffffffffffffffffffffffffffffffffffff16610cc16108ba565b73ffffffffffffffffffffffffffffffffffffffff1614610d2057610ce4610c6b565b6040517f118cdaa7000000000000000000000000000000000000000000000000000000008152600401610d17919061231c565b60405180910390fd5b565b610d2a6115e2565b6000600a60006101000a81548160ff0219169083151502179055507f5db9ee0a495bf2e6ff9c91a7834c1ba4fdd244a5e8aa4e537bd38aeae4b073aa610d6e610c6b565b604051610d7b919061231c565b60405180910390a1565b610d9f828260405180602001604052806000815250611622565b5050565b6000600a60019054906101000a900473ffffffffffffffffffffffffffffffffffffffff16905081600a60016101000a81548173ffffffffffffffffffffffffffffffffffffffff021916908373ffffffffffffffffffffffffffffffffffffffff1602179055508173ffffffffffffffffffffffffffffffffffffffff168173ffffffffffffffffffffffffffffffffffffffff167f8be0079c531659141344cd1fd0a4f28419497f9722a3daafe3b4186f6b6457e060405160405180910390a35050565b610e7161163e565b6001600a60006101000a81548160ff0219169083151502179055507f62e78cea01bee320cd4e420270b5ea74000d11b0c9f74754ebdbfc544b05a258610eb5610c6b565b604051610ec2919061231c565b60405180910390a1565b600073ffffffffffffffffffffffffffffffffffffffff168273ffffffffffffffffffffffffffffffffffffffff1603610f3d57816040517f5b08ba18000000000000000000000000000000000000000000000000000000008152600401610f34919061231c565b60405180910390fd5b80600560008573ffffffffffffffffffffffffffffffffffffffff1673ffffffffffffffffffffffffffffffffffffffff16815260200190815260200160002060008473ffffffffffffffffffffffffffffffffffffffff1673ffffffffffffffffffffffffffffffffffffffff16815260200190815260200160002060006101000a81548160ff0219169083151502179055508173ffffffffffffffffffffffffffffffffffffffff168373ffffffffffffffffffffffffffffffffffffffff167f17307eab39ab6107e8899845ad3d59bd9653f200f220920489ca2b5937696c318360405161102e91906121ab565b60405180910390a3505050565b60008373ffffffffffffffffffffffffffffffffffffffff163b11156111ec578273ffffffffffffffffffffffffffffffffffffffff1663150b7a0261107f610c6b565b8685856040518563ffffffff1660e01b81526004016110a194939291906128cc565b6020604051808303816000875af19250505080156110dd57506040513d601f19601f820116820180604052508101906110da919061292d565b60015b611161573d806000811461110d576040519150601f19603f3d011682016040523d82523d6000602084013e611112565b606091505b50600081510361115957836040517f64a0ae92000000000000000000000000000000000000000000000000000000008152600401611150919061231c565b60405180910390fd5b805181602001fd5b63150b7a0260e01b7bffffffffffffffffffffffffffffffffffffffffffffffffffffffff1916817bffffffffffffffffffffffffffffffffffffffffffffffffffffffff1916146111ea57836040517f64a0ae920000000000000000000000000000000000000000000000000000000081526004016111e1919061231c565b60405180910390fd5b505b50505050565b60606040518060600160405280603681526020016129ed60369139905090565b6060600060016112218461167f565b01905060008167ffffffffffffffff8111156112405761123f6124c3565b5b6040519080825280601f01601f1916602001820160405280156112725781602001600182028036833780820191505090505b509050600082602001820190505b6001156112d5578080600190039150507f3031323334353637383961626364656600000000000000000000000000000000600a86061a8153600a85816112c9576112c861295a565b5b04945060008503611280575b819350505050919050565b60007f80ac58cd000000000000000000000000000000000000000000000000000000007bffffffffffffffffffffffffffffffffffffffffffffffffffffffff1916827bffffffffffffffffffffffffffffffffffffffffffffffffffffffff191614806113ab57507f5b5e139f000000000000000000000000000000000000000000000000000000007bffffffffffffffffffffffffffffffffffffffffffffffffffffffff1916827bffffffffffffffffffffffffffffffffffffffffffffffffffffffff1916145b806113bb57506113ba826117d2565b5b9050919050565b60006002600083815260200190815260200160002060009054906101000a900473ffffffffffffffffffffffffffffffffffffffff169050919050565b80806114385750600073ffffffffffffffffffffffffffffffffffffffff168273ffffffffffffffffffffffffffffffffffffffff1614155b1561156c57600061144884610ba6565b9050600073ffffffffffffffffffffffffffffffffffffffff168373ffffffffffffffffffffffffffffffffffffffff16141580156114b357508273ffffffffffffffffffffffffffffffffffffffff168173ffffffffffffffffffffffffffffffffffffffff1614155b80156114c657506114c48184610a12565b155b1561150857826040517fa9fbf51f0000000000000000000000000000000000000000000000000000000081526004016114ff919061231c565b60405180910390fd5b811561156a57838573ffffffffffffffffffffffffffffffffffffffff168273ffffffffffffffffffffffffffffffffffffffff167f8c5be1e5ebec7d5bd14f71427d1e84f3dd0314c0f7b2291e5b200ac8c7c3b92560405160405180910390a45b505b836004600085815260200190815260200160002060006101000a81548173ffffffffffffffffffffffffffffffffffffffff021916908373ffffffffffffffffffffffffffffffffffffffff16021790555050505050565b60006115ce61163e565b6115d984848461183c565b90509392505050565b6115ea6107b1565b611620576040517f8dfc202b00000000000000000000000000000000000000000000000000000000815260040160405180910390fd5b565b61162c8383611959565b611639600084848461103b565b505050565b6116466107b1565b1561167d576040517fd93c066500000000000000000000000000000000000000000000000000000000815260040160405180910390fd5b565b600080600090507a184f03e93ff9f4daa797ed6e38ed64bf6a1f01000000000000000083106116dd577a184f03e93ff9f4daa797ed6e38ed64bf6a1f01000000000000000083816116d3576116d261295a565b5b0492506040810190505b6d04ee2d6d415b85acef8100000000831061171a576d04ee2d6d415b85acef810000000083816117105761170f61295a565b5b0492506020810190505b662386f26fc10000831061174957662386f26fc10000838161173f5761173e61295a565b5b0492506010810190505b6305f5e1008310611772576305f5e10083816117685761176761295a565b5b0492506008810190505b612710831061179757612710838161178d5761178c61295a565b5b0492506004810190505b606483106117ba57606483816117b0576117af61295a565b5b0492506002810190505b600a83106117c9576001810190505b80915050919050565b60007f01ffc9a7000000000000000000000000000000000000000000000000000000007bffffffffffffffffffffffffffffffffffffffffffffffffffffffff1916827bffffffffffffffffffffffffffffffffffffffffffffffffffffffff1916149050919050565b60008061184a858585611a52565b9050600073ffffffffffffffffffffffffffffffffffffffff168173ffffffffffffffffffffffffffffffffffffffff160361188e5761188984611c6c565b6118cd565b8473ffffffffffffffffffffffffffffffffffffffff168173ffffffffffffffffffffffffffffffffffffffff16146118cc576118cb8185611cb5565b5b5b600073ffffffffffffffffffffffffffffffffffffffff168573ffffffffffffffffffffffffffffffffffffffff160361190f5761190a84611e16565b61194e565b8473ffffffffffffffffffffffffffffffffffffffff168173ffffffffffffffffffffffffffffffffffffffff161461194d5761194c8585611ee7565b5b5b809150509392505050565b600073ffffffffffffffffffffffffffffffffffffffff168273ffffffffffffffffffffffffffffffffffffffff16036119cb5760006040517f64a0ae920000000000000000000000000000000000000000000000000000000081526004016119c2919061231c565b60405180910390fd5b60006119d983836000610c85565b9050600073ffffffffffffffffffffffffffffffffffffffff168173ffffffffffffffffffffffffffffffffffffffff1614611a4d5760006040517f73c6ac6e000000000000000000000000000000000000000000000000000000008152600401611a44919061231c565b60405180910390fd5b505050565b600080611a5e846113c2565b9050600073ffffffffffffffffffffffffffffffffffffffff168373ffffffffffffffffffffffffffffffffffffffff1614611aa057611a9f818486611f72565b5b600073ffffffffffffffffffffffffffffffffffffffff168173ffffffffffffffffffffffffffffffffffffffff1614611b3157611ae26000856000806113ff565b6001600360008373ffffffffffffffffffffffffffffffffffffffff1673ffffffffffffffffffffffffffffffffffffffff168152602001908152602001600020600082825403925050819055505b600073ffffffffffffffffffffffffffffffffffffffff168573ffffffffffffffffffffffffffffffffffffffff1614611bb4576001600360008773ffffffffffffffffffffffffffffffffffffffff1673ffffffffffffffffffffffffffffffffffffffff168152602001908152602001600020600082825401925050819055505b846002600086815260200190815260200160002060006101000a81548173ffffffffffffffffffffffffffffffffffffffff021916908373ffffffffffffffffffffffffffffffffffffffff160217905550838573ffffffffffffffffffffffffffffffffffffffff168273ffffffffffffffffffffffffffffffffffffffff167fddf252ad1be2c89b69c2b068fc378daa952ba7f163c4a11628f55a4df523b3ef60405160405180910390a4809150509392505050565b6008805490506009600083815260200190815260200160002081905550600881908060018154018082558091505060019003906000526020600020016000909190919091505550565b6000611cc0836107da565b9050600060076000848152602001908152602001600020549050818114611da5576000600660008673ffffffffffffffffffffffffffffffffffffffff1673ffffffffffffffffffffffffffffffffffffffff168152602001908152602001600020600084815260200190815260200160002054905080600660008773ffffffffffffffffffffffffffffffffffffffff1673ffffffffffffffffffffffffffffffffffffffff168152602001908152602001600020600084815260200190815260200160002081905550816007600083815260200190815260200160002081905550505b6007600084815260200190815260200160002060009055600660008573ffffffffffffffffffffffffffffffffffffffff1673ffffffffffffffffffffffffffffffffffffffff16815260200190815260200160002060008381526020019081526020016000206000905550505050565b60006001600880549050611e2a9190612989565b9050600060096000848152602001908152602001600020549050600060088381548110611e5a57611e596127e8565b5b906000526020600020015490508060088381548110611e7c57611e7b6127e8565b5b906000526020600020018190555081600960008381526020019081526020016000208190555060096000858152602001908152602001600020600090556008805480611ecb57611eca6129bd565b5b6001900381819060005260206000200160009055905550505050565b60006001611ef4846107da565b611efe9190612989565b905081600660008573ffffffffffffffffffffffffffffffffffffffff1673ffffffffffffffffffffffffffffffffffffffff168152602001908152602001600020600083815260200190815260200160002081905550806007600084815260200190815260200160002081905550505050565b611f7d838383612036565b61203157600073ffffffffffffffffffffffffffffffffffffffff168373ffffffffffffffffffffffffffffffffffffffff1603611ff257806040517f7e273289000000000000000000000000000000000000000000000000000000008152600401611fe991906123b2565b60405180910390fd5b81816040517f177e802f000000000000000000000000000000000000000000000000000000008152600401612028929190612748565b60405180910390fd5b505050565b60008073ffffffffffffffffffffffffffffffffffffffff168373ffffffffffffffffffffffffffffffffffffffff16141580156120ee57508273ffffffffffffffffffffffffffffffffffffffff168473ffffffffffffffffffffffffffffffffffffffff1614806120af57506120ae8484610a12565b5b806120ed57508273ffffffffffffffffffffffffffffffffffffffff166120d583610c2e565b73ffffffffffffffffffffffffffffffffffffffff16145b5b90509392505050565b6000604051905090565b600080fd5b600080fd5b60007fffffffff0000000000000000000000000000000000000000000000000000000082169050919050565b6121408161210b565b811461214b57600080fd5b50565b60008135905061215d81612137565b92915050565b60006020828403121561217957612178612101565b5b60006121878482850161214e565b91505092915050565b60008115159050919050565b6121a581612190565b82525050565b60006020820190506121c0600083018461219c565b92915050565b600081519050919050565b600082825260208201905092915050565b60005b838110156122005780820151818401526020810190506121e5565b60008484015250505050565b6000601f19601f8301169050919050565b6000612228826121c6565b61223281856121d1565b93506122428185602086016121e2565b61224b8161220c565b840191505092915050565b60006020820190508181036000830152612270818461221d565b905092915050565b6000819050919050565b61228b81612278565b811461229657600080fd5b50565b6000813590506122a881612282565b92915050565b6000602082840312156122c4576122c3612101565b5b60006122d284828501612299565b91505092915050565b600073ffffffffffffffffffffffffffffffffffffffff82169050919050565b6000612306826122db565b9050919050565b612316816122fb565b82525050565b6000602082019050612331600083018461230d565b92915050565b612340816122fb565b811461234b57600080fd5b50565b60008135905061235d81612337565b92915050565b6000806040838503121561237a57612379612101565b5b60006123888582860161234e565b925050602061239985828601612299565b9150509250929050565b6123ac81612278565b82525050565b60006020820190506123c760008301846123a3565b92915050565b6000806000606084860312156123e6576123e5612101565b5b60006123f48682870161234e565b93505060206124058682870161234e565b925050604061241686828701612299565b9150509250925092565b60006020828403121561243657612435612101565b5b60006124448482850161234e565b91505092915050565b61245681612190565b811461246157600080fd5b50565b6000813590506124738161244d565b92915050565b600080604083850312156124905761248f612101565b5b600061249e8582860161234e565b92505060206124af85828601612464565b9150509250929050565b600080fd5b600080fd5b7f4e487b7100000000000000000000000000000000000000000000000000000000600052604160045260246000fd5b6124fb8261220c565b810181811067ffffffffffffffff8211171561251a576125196124c3565b5b80604052505050565b600061252d6120f7565b905061253982826124f2565b919050565b600067ffffffffffffffff821115612559576125586124c3565b5b6125628261220c565b9050602081019050919050565b82818337600083830152505050565b600061259161258c8461253e565b612523565b9050828152602081018484840111156125ad576125ac6124be565b5b6125b884828561256f565b509392505050565b600082601f8301126125d5576125d46124b9565b5b81356125e584826020860161257e565b91505092915050565b6000806000806080858703121561260857612607612101565b5b60006126168782880161234e565b94505060206126278782880161234e565b935050604061263887828801612299565b925050606085013567ffffffffffffffff81111561265957612658612106565b5b612665878288016125c0565b91505092959194509250565b6000806040838503121561268857612687612101565b5b60006126968582860161234e565b92505060206126a78582860161234e565b9150509250929050565b7f4e487b7100000000000000000000000000000000000000000000000000000000600052602260045260246000fd5b600060028204905060018216806126f857607f821691505b60208210810361270b5761270a6126b1565b5b50919050565b6000606082019050612726600083018661230d565b61273360208301856123a3565b612740604083018461230d565b949350505050565b600060408201905061275d600083018561230d565b61276a60208301846123a3565b9392505050565b7f4e487b7100000000000000000000000000000000000000000000000000000000600052601160045260246000fd5b60006127ab82612278565b91507fffffffffffffffffffffffffffffffffffffffffffffffffffffffffffffffff82036127dd576127dc612771565b5b600182019050919050565b7f4e487b7100000000000000000000000000000000000000000000000000000000600052603260045260246000fd5b600081905092915050565b600061282d826121c6565b6128378185612817565b93506128478185602086016121e2565b80840191505092915050565b600061285f8285612822565b915061286b8284612822565b91508190509392505050565b600081519050919050565b600082825260208201905092915050565b600061289e82612877565b6128a88185612882565b93506128b88185602086016121e2565b6128c18161220c565b840191505092915050565b60006080820190506128e1600083018761230d565b6128ee602083018661230d565b6128fb60408301856123a3565b818103606083015261290d8184612893565b905095945050505050565b60008151905061292781612137565b92915050565b60006020828403121561294357612942612101565b5b600061295184828501612918565b91505092915050565b7f4e487b7100000000000000000000000000000000000000000000000000000000600052601260045260246000fd5b600061299482612278565b915061299f83612278565b92508282039050818111156129b7576129b6612771565b5b92915050565b7f4e487b7100000000000000000000000000000000000000000000000000000000600052603160045260246000fdfe697066733a2f2f516d61613654755032733970534b637a48463472775768544b556479677272447338526d595971436a50334879652fa264697066735822122051bca3bfd159ba0eae06f9002a4df587ae3406ba618081052000774bcacebe1b64736f6c63430008140033",
  "linkReferences": {},
  "deployedLinkReferences": {}
}