{
  "_format": "hh-sol-artifact-1",
  "contractName": "DHACrowdSale",
  "sourceName": "contracts/DHACrowdsale.sol",
  "abi": [
    {
      "inputs": [
        {
          "internalType": "uint256",
          "name": "bnb_rate",
          "type": "uint256"
        },
        {
          "internalType": "uint256",
          "name": "t1_rate",
          "type": "uint256"
        },
        {
          "internalType": "address payable",
          "name": "wallet",
          "type": "address"
        },
        {
          "internalType": "contract IERC20",
          "name": "icotoken",
          "type": "address"
        }
      ],
      "stateMutability": "nonpayable",
      "type": "constructor"
    },
    {
      "anonymous": false,
      "inputs": [
        {
          "indexed": false,
          "internalType": "address",
          "name": "buyer",
          "type": "address"
        },
        {
          "indexed": false,
          "internalType": "uint256",
          "name": "amount",
          "type": "uint256"
        }
      ],
      "name": "BuyTokenByBNB",
      "type": "event"
    },
    {
      "anonymous": false,
      "inputs": [
        {
          "indexed": false,
          "internalType": "address",
          "name": "buyer",
          "type": "address"
        },
        {
          "indexed": false,
          "internalType": "uint256",
          "name": "amount",
          "type": "uint256"
        }
      ],
      "name": "BuyTokenByT1",
      "type": "event"
    },
    {
      "anonymous": false,
      "inputs": [
        {
          "indexed": true,
          "internalType": "address",
          "name": "previousOwner",
          "type": "address"
        },
        {
          "indexed": true,
          "internalType": "address",
          "name": "newOwner",
          "type": "address"
        }
      ],
      "name": "OwnershipTransferred",
      "type": "event"
    },
    {
      "anonymous": false,
      "inputs": [
        {
          "indexed": false,
          "internalType": "uint256",
          "name": "newRate",
          "type": "uint256"
        }
      ],
      "name": "SetBNBRate",
      "type": "event"
    },
    {
      "anonymous": false,
      "inputs": [
        {
          "indexed": false,
          "internalType": "uint256",
          "name": "newRate",
          "type": "uint256"
        }
      ],
      "name": "SetT1Rate",
      "type": "event"
    },
    {
      "anonymous": false,
      "inputs": [
        {
          "indexed": false,
          "internalType": "contract IERC20",
          "name": "tokenAddress",
          "type": "address"
        }
      ],
      "name": "SetT1Token",
      "type": "event"
    },
    {
      "inputs": [],
      "name": "BNB_rate",
      "outputs": [
        {
          "internalType": "uint256",
          "name": "",
          "type": "uint256"
        }
      ],
      "stateMutability": "view",
      "type": "function"
    },
    {
      "inputs": [],
      "name": "T1_rate",
      "outputs": [
        {
          "internalType": "uint256",
          "name": "",
          "type": "uint256"
        }
      ],
      "stateMutability": "view",
      "type": "function"
    },
    {
      "inputs": [],
      "name": "_wallet",
      "outputs": [
        {
          "internalType": "address payable",
          "name": "",
          "type": "address"
        }
      ],
      "stateMutability": "view",
      "type": "function"
    },
    {
      "inputs": [],
      "name": "buyTokenByBNB",
      "outputs": [],
      "stateMutability": "payable",
      "type": "function"
    },
    {
      "inputs": [
        {
          "internalType": "uint256",
          "name": "T1Amount",
          "type": "uint256"
        }
      ],
      "name": "buyTokenByT1",
      "outputs": [],
      "stateMutability": "nonpayable",
      "type": "function"
    },
    {
      "inputs": [
        {
          "internalType": "uint256",
          "name": "BNBAmount",
          "type": "uint256"
        }
      ],
      "name": "getTokenAmountBNB",
      "outputs": [
        {
          "internalType": "uint256",
          "name": "",
          "type": "uint256"
        }
      ],
      "stateMutability": "view",
      "type": "function"
    },
    {
      "inputs": [
        {
          "internalType": "uint256",
          "name": "T1Amount",
          "type": "uint256"
        }
      ],
      "name": "getTokenAmountT1",
      "outputs": [
        {
          "internalType": "uint256",
          "name": "",
          "type": "uint256"
        }
      ],
      "stateMutability": "view",
      "type": "function"
    },
    {
      "inputs": [],
      "name": "owner",
      "outputs": [
        {
          "internalType": "address",
          "name": "",
          "type": "address"
        }
      ],
      "stateMutability": "view",
      "type": "function"
    },
    {
      "inputs": [],
      "name": "renounceOwnership",
      "outputs": [],
      "stateMutability": "nonpayable",
      "type": "function"
    },
    {
      "inputs": [
        {
          "internalType": "uint256",
          "name": "new_rate",
          "type": "uint256"
        }
      ],
      "name": "setBNBRate",
      "outputs": [],
      "stateMutability": "nonpayable",
      "type": "function"
    },
    {
      "inputs": [
        {
          "internalType": "uint256",
          "name": "new_rate",
          "type": "uint256"
        }
      ],
      "name": "setT1Rate",
      "outputs": [],
      "stateMutability": "nonpayable",
      "type": "function"
    },
    {
      "inputs": [
        {
          "internalType": "contract IERC20",
          "name": "token_address",
          "type": "address"
        }
      ],
      "name": "setT1Token",
      "outputs": [],
      "stateMutability": "nonpayable",
      "type": "function"
    },
    {
      "inputs": [],
      "name": "t1Token",
      "outputs": [
        {
          "internalType": "contract IERC20",
          "name": "",
          "type": "address"
        }
      ],
      "stateMutability": "view",
      "type": "function"
    },
    {
      "inputs": [],
      "name": "token",
      "outputs": [
        {
          "internalType": "contract IERC20",
          "name": "",
          "type": "address"
        }
      ],
      "stateMutability": "view",
      "type": "function"
    },
    {
      "inputs": [
        {
          "internalType": "address",
          "name": "newOwner",
          "type": "address"
        }
      ],
      "name": "transferOwnership",
      "outputs": [],
      "stateMutability": "nonpayable",
      "type": "function"
    },
    {
      "inputs": [],
      "name": "withdraw",
      "outputs": [],
      "stateMutability": "nonpayable",
      "type": "function"
    },
    {
      "inputs": [],
      "name": "withdrawErc20",
      "outputs": [],
      "stateMutability": "nonpayable",
      "type": "function"
    }
  ],
  "bytecode": "0x60806040523480156200001157600080fd5b5060405162001ffd38038062001ffd833981810160405281019062000037919062000287565b6000620000496200018160201b60201c565b9050806000806101000a81548173ffffffffffffffffffffffffffffffffffffffff021916908373ffffffffffffffffffffffffffffffffffffffff1602179055508073ffffffffffffffffffffffffffffffffffffffff16600073ffffffffffffffffffffffffffffffffffffffff167f8be0079c531659141344cd1fd0a4f28419497f9722a3daafe3b4186f6b6457e060405160405180910390a350836002819055508260038190555081600160006101000a81548173ffffffffffffffffffffffffffffffffffffffff021916908373ffffffffffffffffffffffffffffffffffffffff16021790555080600460006101000a81548173ffffffffffffffffffffffffffffffffffffffff021916908373ffffffffffffffffffffffffffffffffffffffff16021790555050505050620002f9565b600033905090565b600080fd5b6000819050919050565b620001a3816200018e565b8114620001af57600080fd5b50565b600081519050620001c38162000198565b92915050565b600073ffffffffffffffffffffffffffffffffffffffff82169050919050565b6000620001f682620001c9565b9050919050565b6200020881620001e9565b81146200021457600080fd5b50565b6000815190506200022881620001fd565b92915050565b60006200023b82620001c9565b9050919050565b60006200024f826200022e565b9050919050565b620002618162000242565b81146200026d57600080fd5b50565b600081519050620002818162000256565b92915050565b60008060008060808587031215620002a457620002a362000189565b5b6000620002b487828801620001b2565b9450506020620002c787828801620001b2565b9350506040620002da8782880162000217565b9250506060620002ed8782880162000270565b91505092959194509250565b611cf480620003096000396000f3fe6080604052600436106100fe5760003560e01c8063715018a61161009557806396a4b8231161006457806396a4b823146102a4578063acb03d43146102e1578063f2fde38b1461031e578063fc0c546a14610347578063fe8ce36a14610372576100fe565b8063715018a614610210578063775db1cf1461022757806384c09b19146102505780638da5cb5b14610279576100fe565b806331927737116100d157806331927737146101ad5780633ccfd60b146101b75780633e3f2359146101ce578063610757e4146101e5576100fe565b806303754fcb1461010357806314888cb91461012e578063157fc821146101595780632be8629914610184575b600080fd5b34801561010f57600080fd5b5061011861039b565b6040516101259190611481565b60405180910390f35b34801561013a57600080fd5b506101436103a1565b604051610150919061151b565b60405180910390f35b34801561016557600080fd5b5061016e6103c7565b60405161017b9190611481565b60405180910390f35b34801561019057600080fd5b506101ab60048036038101906101a69190611567565b6103cd565b005b6101b561048a565b005b3480156101c357600080fd5b506101cc6106ea565b005b3480156101da57600080fd5b506101e36107af565b005b3480156101f157600080fd5b506101fa610969565b60405161020791906115b5565b60405180910390f35b34801561021c57600080fd5b5061022561098f565b005b34801561023357600080fd5b5061024e60048036038101906102499190611567565b610ac9565b005b34801561025c57600080fd5b5061027760048036038101906102729190611620565b610d0b565b005b34801561028557600080fd5b5061028e610e02565b60405161029b919061165c565b60405180910390f35b3480156102b057600080fd5b506102cb60048036038101906102c69190611567565b610e2b565b6040516102d89190611481565b60405180910390f35b3480156102ed57600080fd5b5061030860048036038101906103039190611567565b610e42565b6040516103159190611481565b60405180910390f35b34801561032a57600080fd5b50610345600480360381019061034091906116a3565b610e59565b005b34801561035357600080fd5b5061035c611001565b604051610369919061151b565b60405180910390f35b34801561037e57600080fd5b5061039960048036038101906103949190611567565b611027565b005b60035481565b600560009054906101000a900473ffffffffffffffffffffffffffffffffffffffff1681565b60025481565b6103d56110e4565b73ffffffffffffffffffffffffffffffffffffffff166103f3610e02565b73ffffffffffffffffffffffffffffffffffffffff1614610449576040517f08c379a00000000000000000000000000000000000000000000000000000000081526004016104409061172d565b60405180910390fd5b806002819055507fb0cc740bbbfcd5af22ee3956c6b44d2d6f499e2a86cb11d915fcce88dca2113a8160405161047f9190611481565b60405180910390a150565b6000349050600061049a82610e42565b9050600081116104df576040517f08c379a00000000000000000000000000000000000000000000000000000000081526004016104d690611799565b60405180910390fd5b80600460009054906101000a900473ffffffffffffffffffffffffffffffffffffffff1673ffffffffffffffffffffffffffffffffffffffff166370a08231306040518263ffffffff1660e01b815260040161053b919061165c565b602060405180830381865afa158015610558573d6000803e3d6000fd5b505050506040513d601f19601f8201168201806040525081019061057c91906117ce565b10156105bd576040517f08c379a00000000000000000000000000000000000000000000000000000000081526004016105b490611847565b60405180910390fd5b813373ffffffffffffffffffffffffffffffffffffffff16311015610617576040517f08c379a000000000000000000000000000000000000000000000000000000000815260040161060e90611847565b60405180910390fd5b600160009054906101000a900473ffffffffffffffffffffffffffffffffffffffff1673ffffffffffffffffffffffffffffffffffffffff166108fc839081150290604051600060405180830381858888f1935050505015801561067f573d6000803e3d6000fd5b506106ad600460009054906101000a900473ffffffffffffffffffffffffffffffffffffffff1633836110ec565b7ff695091b71a5c3ea41510251da89a66470bbcf1ee118f820a1bab8739e29ea5033826040516106de929190611867565b60405180910390a15050565b6106f26110e4565b73ffffffffffffffffffffffffffffffffffffffff16610710610e02565b73ffffffffffffffffffffffffffffffffffffffff1614610766576040517f08c379a000000000000000000000000000000000000000000000000000000000815260040161075d9061172d565b60405180910390fd5b3373ffffffffffffffffffffffffffffffffffffffff166108fc479081150290604051600060405180830381858888f193505050501580156107ac573d6000803e3d6000fd5b50565b6107b76110e4565b73ffffffffffffffffffffffffffffffffffffffff166107d5610e02565b73ffffffffffffffffffffffffffffffffffffffff161461082b576040517f08c379a00000000000000000000000000000000000000000000000000000000081526004016108229061172d565b60405180910390fd5b600560009054906101000a900473ffffffffffffffffffffffffffffffffffffffff1673ffffffffffffffffffffffffffffffffffffffff1663a9059cbb33600560009054906101000a900473ffffffffffffffffffffffffffffffffffffffff1673ffffffffffffffffffffffffffffffffffffffff166370a08231306040518263ffffffff1660e01b81526004016108c5919061165c565b602060405180830381865afa1580156108e2573d6000803e3d6000fd5b505050506040513d601f19601f8201168201806040525081019061090691906117ce565b6040518363ffffffff1660e01b8152600401610923929190611867565b6020604051808303816000875af1158015610942573d6000803e3d6000fd5b505050506040513d601f19601f8201168201806040525081019061096691906118c8565b50565b600160009054906101000a900473ffffffffffffffffffffffffffffffffffffffff1681565b6109976110e4565b73ffffffffffffffffffffffffffffffffffffffff166109b5610e02565b73ffffffffffffffffffffffffffffffffffffffff1614610a0b576040517f08c379a0000000000000000000000000000000000000000000000000000000008152600401610a029061172d565b60405180910390fd5b600073ffffffffffffffffffffffffffffffffffffffff1660008054906101000a900473ffffffffffffffffffffffffffffffffffffffff1673ffffffffffffffffffffffffffffffffffffffff167f8be0079c531659141344cd1fd0a4f28419497f9722a3daafe3b4186f6b6457e060405160405180910390a360008060006101000a81548173ffffffffffffffffffffffffffffffffffffffff021916908373ffffffffffffffffffffffffffffffffffffffff160217905550565b6000610ad482610e2b565b9050813373ffffffffffffffffffffffffffffffffffffffff16311015610b30576040517f08c379a0000000000000000000000000000000000000000000000000000000008152600401610b2790611847565b60405180910390fd5b60008111610b73576040517f08c379a0000000000000000000000000000000000000000000000000000000008152600401610b6a90611799565b60405180910390fd5b80600460009054906101000a900473ffffffffffffffffffffffffffffffffffffffff1673ffffffffffffffffffffffffffffffffffffffff166370a08231306040518263ffffffff1660e01b8152600401610bcf919061165c565b602060405180830381865afa158015610bec573d6000803e3d6000fd5b505050506040513d601f19601f82011682018060405250810190610c1091906117ce565b1015610c51576040517f08c379a0000000000000000000000000000000000000000000000000000000008152600401610c4890611847565b60405180910390fd5b610ca1600560009054906101000a900473ffffffffffffffffffffffffffffffffffffffff1633600160009054906101000a900473ffffffffffffffffffffffffffffffffffffffff1685611172565b610cce600460009054906101000a900473ffffffffffffffffffffffffffffffffffffffff1633836110ec565b7f106c5fd4a3e90b144a8f6d9ed4678b0928c3a72a5f7f70397f8ef08bd9eb26163382604051610cff929190611867565b60405180910390a15050565b610d136110e4565b73ffffffffffffffffffffffffffffffffffffffff16610d31610e02565b73ffffffffffffffffffffffffffffffffffffffff1614610d87576040517f08c379a0000000000000000000000000000000000000000000000000000000008152600401610d7e9061172d565b60405180910390fd5b80600560006101000a81548173ffffffffffffffffffffffffffffffffffffffff021916908373ffffffffffffffffffffffffffffffffffffffff1602179055507f48e81c05413f5fbd303030b650f8e367d6a771a275ca8435b998767d4c1afe9b81604051610df7919061151b565b60405180910390a150565b60008060009054906101000a900473ffffffffffffffffffffffffffffffffffffffff16905090565b600060035482610e3b9190611924565b9050919050565b600060025482610e529190611924565b9050919050565b610e616110e4565b73ffffffffffffffffffffffffffffffffffffffff16610e7f610e02565b73ffffffffffffffffffffffffffffffffffffffff1614610ed5576040517f08c379a0000000000000000000000000000000000000000000000000000000008152600401610ecc9061172d565b60405180910390fd5b600073ffffffffffffffffffffffffffffffffffffffff168173ffffffffffffffffffffffffffffffffffffffff1603610f44576040517f08c379a0000000000000000000000000000000000000000000000000000000008152600401610f3b906119d8565b60405180910390fd5b8073ffffffffffffffffffffffffffffffffffffffff1660008054906101000a900473ffffffffffffffffffffffffffffffffffffffff1673ffffffffffffffffffffffffffffffffffffffff167f8be0079c531659141344cd1fd0a4f28419497f9722a3daafe3b4186f6b6457e060405160405180910390a3806000806101000a81548173ffffffffffffffffffffffffffffffffffffffff021916908373ffffffffffffffffffffffffffffffffffffffff16021790555050565b600460009054906101000a900473ffffffffffffffffffffffffffffffffffffffff1681565b61102f6110e4565b73ffffffffffffffffffffffffffffffffffffffff1661104d610e02565b73ffffffffffffffffffffffffffffffffffffffff16146110a3576040517f08c379a000000000000000000000000000000000000000000000000000000000815260040161109a9061172d565b60405180910390fd5b806003819055507fe54240f1e4baf5bae8b108703dc8237ae3738d4239393a8c839980784c1877c2816040516110d99190611481565b60405180910390a150565b600033905090565b61116d8363a9059cbb60e01b848460405160240161110b929190611867565b604051602081830303815290604052907bffffffffffffffffffffffffffffffffffffffffffffffffffffffff19166020820180517bffffffffffffffffffffffffffffffffffffffffffffffffffffffff83818316178352505050506111fb565b505050565b6111f5846323b872dd60e01b858585604051602401611193939291906119f8565b604051602081830303815290604052907bffffffffffffffffffffffffffffffffffffffffffffffffffffffff19166020820180517bffffffffffffffffffffffffffffffffffffffffffffffffffffffff83818316178352505050506111fb565b50505050565b600061125d826040518060400160405280602081526020017f5361666545524332303a206c6f772d6c6576656c2063616c6c206661696c65648152508573ffffffffffffffffffffffffffffffffffffffff166112c29092919063ffffffff16565b90506000815111156112bd578080602001905181019061127d91906118c8565b6112bc576040517f08c379a00000000000000000000000000000000000000000000000000000000081526004016112b390611aa1565b60405180910390fd5b5b505050565b60606112d184846000856112da565b90509392505050565b60608247101561131f576040517f08c379a000000000000000000000000000000000000000000000000000000000815260040161131690611b33565b60405180910390fd5b611328856113ee565b611367576040517f08c379a000000000000000000000000000000000000000000000000000000000815260040161135e90611b9f565b60405180910390fd5b6000808673ffffffffffffffffffffffffffffffffffffffff1685876040516113909190611c30565b60006040518083038185875af1925050503d80600081146113cd576040519150601f19603f3d011682016040523d82523d6000602084013e6113d2565b606091505b50915091506113e2828286611401565b92505050949350505050565b600080823b905060008111915050919050565b6060831561141157829050611461565b6000835111156114245782518084602001fd5b816040517f08c379a00000000000000000000000000000000000000000000000000000000081526004016114589190611c9c565b60405180910390fd5b9392505050565b6000819050919050565b61147b81611468565b82525050565b60006020820190506114966000830184611472565b92915050565b600073ffffffffffffffffffffffffffffffffffffffff82169050919050565b6000819050919050565b60006114e16114dc6114d78461149c565b6114bc565b61149c565b9050919050565b60006114f3826114c6565b9050919050565b6000611505826114e8565b9050919050565b611515816114fa565b82525050565b6000602082019050611530600083018461150c565b92915050565b600080fd5b61154481611468565b811461154f57600080fd5b50565b6000813590506115618161153b565b92915050565b60006020828403121561157d5761157c611536565b5b600061158b84828501611552565b91505092915050565b600061159f8261149c565b9050919050565b6115af81611594565b82525050565b60006020820190506115ca60008301846115a6565b92915050565b60006115db8261149c565b9050919050565b60006115ed826115d0565b9050919050565b6115fd816115e2565b811461160857600080fd5b50565b60008135905061161a816115f4565b92915050565b60006020828403121561163657611635611536565b5b60006116448482850161160b565b91505092915050565b611656816115d0565b82525050565b6000602082019050611671600083018461164d565b92915050565b611680816115d0565b811461168b57600080fd5b50565b60008135905061169d81611677565b92915050565b6000602082840312156116b9576116b8611536565b5b60006116c78482850161168e565b91505092915050565b600082825260208201905092915050565b7f4f776e61626c653a2063616c6c6572206973206e6f7420746865206f776e6572600082015250565b60006117176020836116d0565b9150611722826116e1565b602082019050919050565b600060208201905081810360008301526117468161170a565b9050919050565b7f416d6f756e74206973207a65726f000000000000000000000000000000000000600082015250565b6000611783600e836116d0565b915061178e8261174d565b602082019050919050565b600060208201905081810360008301526117b281611776565b9050919050565b6000815190506117c88161153b565b92915050565b6000602082840312156117e4576117e3611536565b5b60006117f2848285016117b9565b91505092915050565b7f496e73756666696369656e74206163636f756e742062616c616e636500000000600082015250565b6000611831601c836116d0565b915061183c826117fb565b602082019050919050565b6000602082019050818103600083015261186081611824565b9050919050565b600060408201905061187c600083018561164d565b6118896020830184611472565b9392505050565b60008115159050919050565b6118a581611890565b81146118b057600080fd5b50565b6000815190506118c28161189c565b92915050565b6000602082840312156118de576118dd611536565b5b60006118ec848285016118b3565b91505092915050565b7f4e487b7100000000000000000000000000000000000000000000000000000000600052601160045260246000fd5b600061192f82611468565b915061193a83611468565b925082820261194881611468565b9150828204841483151761195f5761195e6118f5565b5b5092915050565b7f4f776e61626c653a206e6577206f776e657220697320746865207a65726f206160008201527f6464726573730000000000000000000000000000000000000000000000000000602082015250565b60006119c26026836116d0565b91506119cd82611966565b604082019050919050565b600060208201905081810360008301526119f1816119b5565b9050919050565b6000606082019050611a0d600083018661164d565b611a1a602083018561164d565b611a276040830184611472565b949350505050565b7f5361666545524332303a204552433230206f7065726174696f6e20646964206e60008201527f6f74207375636365656400000000000000000000000000000000000000000000602082015250565b6000611a8b602a836116d0565b9150611a9682611a2f565b604082019050919050565b60006020820190508181036000830152611aba81611a7e565b9050919050565b7f416464726573733a20696e73756666696369656e742062616c616e636520666f60008201527f722063616c6c0000000000000000000000000000000000000000000000000000602082015250565b6000611b1d6026836116d0565b9150611b2882611ac1565b604082019050919050565b60006020820190508181036000830152611b4c81611b10565b9050919050565b7f416464726573733a2063616c6c20746f206e6f6e2d636f6e7472616374000000600082015250565b6000611b89601d836116d0565b9150611b9482611b53565b602082019050919050565b60006020820190508181036000830152611bb881611b7c565b9050919050565b600081519050919050565b600081905092915050565b60005b83811015611bf3578082015181840152602081019050611bd8565b60008484015250505050565b6000611c0a82611bbf565b611c148185611bca565b9350611c24818560208601611bd5565b80840191505092915050565b6000611c3c8284611bff565b915081905092915050565b600081519050919050565b6000601f19601f8301169050919050565b6000611c6e82611c47565b611c7881856116d0565b9350611c88818560208601611bd5565b611c9181611c52565b840191505092915050565b60006020820190508181036000830152611cb68184611c63565b90509291505056fea2646970667358221220066d79069abd031c0cda4d5a35c9c9620bcfe9d0b27b341994f1f0ae16f8056d64736f6c63430008130033",
  "linkReferences": {},
  "deployedLinkReferences": {}
}